:020000040800F2
:1000000018050020D5000008391D00080D1B000848
:1000100000000000000000000000000000000000E0
:10002000000000000000000000000000F51D0008B6
:100030000000000000000000811D0008F71D0008FE
:10004000E7000008E7000008E7000008E7000008F4
:10005000E7000008E7000008E7000008E7000008E4
:10006000E7000008E7000008E7000008E7000008D4
:10007000E7000008E700000800000000D91E0008A3
:1000800000000000E7000008000000000000000081
:10009000E700000800000000E7000008E700000893
:1000A000E7000008E7000008E7000008E700000894
:1000B000E7000008E7000008E7000008E700000884
:1000C0000348854600F0A4FB004800472D30000897
:1000D000180500200448804704480047FEE7FEE773
:1000E000FEE7FEE7FEE7FEE7851E0008C100000808
:1000F00030B50B46014600202022012409E00D46C0
:10010000D5409D4205D31D469540491B2546954047
:1001100040191546521E002DF1DC30BDF8B50246DF
:100120004A40D40F42004B0052085B089A4202D268
:100130000246084611464A0023D0C30D4A00DDB2EC
:10014000120EAD1A202D35DA49020126490AF605AC
:100150008A19002C00D0524220214F1B1146B94071
:100160002A411018C20D9A4221D0002C17D0012D1F
:1001700008DCDA05801AD20F8019D207DBB200F052
:100180005EFAF8BDDA05801A012340001B06C0188C
:1001900080185A428018CA0F1043490007E04908E6
:1001A000C2071143DA05801A80194008801800F050
:1001B0003EFAF8BD61000122511A001BF7E7012247
:1001C000D2075140AAE70122D2075040A6E700001B
:1001D000F0B507460846584087B0C00F0490480065
:1001E0000E46590040084908BC1A884105D23846D5
:1001F00031461E4617460B4602465800400810433B
:100200004CD0300D039040055900400D490D05902C
:10021000401A0290402872DA18030121000B0905E8
:100220000843019004980092002805D00199524299
:100230000020884100920190029840210A1A0199F9
:10024000009800F0D1F905460C466B4607CB00F04C
:10025000DBF9C0197141039A0E0D0023D7175640E0
:100260001A467A40164344D0049A002A2DD0029AA6
:10027000012A039A15DC1205C01A914101263605A0
:10028000001C7141D20F059ED20700930192029685
:100290002A46234600F019FA07B0F0BD3846314629
:1002A000FAE71605224A0F46B218C01AB7410121D3
:1002B0000905001C4F4100187F411146181879416B
:1002C000E20F10436D19644113E0E2076D08154316
:1002D0006408C2071443039A01261205C01A91410B
:1002E0003605001C7141CE07400830434908C0184C
:1002F00051412A46234600F0DBF9CDE7FFE7049899
:1003000001224000C117121A00238B410498314684
:10031000C417381AA141EEE730B40124E407634062
:1003200030BC55E730B40124E407614030BC4FE7EE
:100330000000E0FFF0B51FB488B00B9909980024C5
:1003400048400999C00F490049080991C0070B9915
:100350000090490049080B9109990898A64608435E
:100360001CD00B990A98084318D009980124400022
:10037000420D4800410D099824050003000B20435D
:1003800009900B980003000B20430B9050181C4958
:100390004018002201901446104605E00020014656
:1003A0000DB0F0BD032801DA034600E003239C46AC
:1003B000C11A0AAE0AE05F0008ADED5B4F00F75BC3
:1003C0007D430027AA187C41491C5B1E6145F2DD74
:1003D000410004AB5A522104120C0A43240C401C65
:1003E0000828DFDB01980290009970460191009087
:1003F000059B049A0799069800F067F9D0E700007A
:100400000DFCFFFFF0B50C465C4085B0E40FE4073F
:1004100003944C000026640859009446490802469B
:100420000296224321D062460A431ED06200570D35
:100430004A000E032303550D012402462C492405CE
:10044000781B1B0B360B4018234326436146009054
:100450001C46501AB44103D30098401C009002E09F
:10046000921800985B41002803DA0020014605B08D
:10047000F0BD0020012109050746864611E06446CB
:100480001D46141BB54106D36546521BB341744645
:1004900007430C43A646CD07400849082843921855
:1004A0005B4105460D43EAD11046184313D0604620
:1004B000194650407140084306D06046101AB341B7
:1004C00006D20122002306E000220123DB0702E01E
:1004D0000122D2435310009874460105381C614133
:1004E000029C039D0019694100F0E2F8BFE700009B
:1004F000FD0300000EB5C217C10F5040CA074018D7
:100500000021054B0293019200910A460B4600F030
:10051000DCF803B000BD0000330400000EB505494F
:100520000291002100910A460B46019100F0CDF89E
:1005300003B000BD33040000C20FD20740004008E2
:100540000BD0C10D0723DB01C91840020905400A81
:100550001143C2084007114370470020014670470D
:1005600010B5002904DB0124E40740428C412146F8
:10057000002B04DB1C460123DB075242A3418B42C4
:1005800000D1824210BD000010B5002904DB012417
:10059000E40740428C412146002B04DB1C4601232A
:1005A000DB075242A341994200D1904210BD0000A6
:1005B000CB0FDB07490010B5490802460A4307D0B4
:1005C0000A0D07240903E401090B121B002A01DCB0
:1005D000002010BDC900440F0C43C100E018D20533
:1005E000801800F024F810BD10B5202A04DB014665
:1005F000203A9140002010BD914020239C1A0346D0
:10060000E3401943904010BD10B5202A06DBCB17FC
:100610000846203A1041C1170B4306E00B46134130
:10062000D0402024A21A91400843194610BD002949
:1006300004DA401C490001D140084000704770B402
:100640000024050C05D11024000402D1002921D07A
:100650001124050E01D100020834050F01D100015B
:10066000241D850F01D18000A41C002801DB40005F
:10067000641C002908D020252E1B0D46F540A14002
:1006800000D001212943084301061B1B000ADB1D82
:1006900002D5002070BC7047DB05181880180029AF
:1006A000F8DA401C4900F5D170BC400840007047A2
:1006B00010B5002B08DA0024401C614192185B4100
:1006C0001A4301D14008400010BDF0B51FB482B0FC
:1006D00005460C0003D0084601F07DFD02E001F064
:1006E0007AFD20300246009021462846FFF77CFF25
:1006F000049B059A04460F4618431143084314D03F
:10070000184610431BD0009840210A1A1846059934
:1007100000F090F805460E46009A05990498FFF7F8
:1007200063FF084305D0012004E02046394607B0A6
:10073000F0BD0020C11705430E432C4337430099F9
:100740000E986305401A7905E40A00220C43FD0A5D
:100750000A3002D500200146E9E701051019694178
:100760000C9C0D9D00196941FFF7A2FFDFE7FEB564
:1007700000231A461B1A8A4103DB0020014603B0FE
:10078000F0BD4A000D0301212D0B0905520D0D434B
:10079000D10702D100186D41521E5110FF31FF31B7
:1007A0000131002704463E46384600970191024633
:1007B00001210020090500F03DF8C3197141F81826
:1007C000324684468E464A4161462846611A904127
:1007D00004D36046241A954176461F462419009892
:1007E0006D41401C00903428E1DDF919304670411C
:1007F000091BA84103D20022D243134601E0002284
:10080000134601980105381C7141FFF751FFB6E707
:10081000064C0125064E05E0E36807CC2B430C3C53
:1008200098471034B442F7D3FFF74EFCD831000894
:10083000F831000810B5202A04DB0846203AD040E1
:10084000002110BD0B46D340D0402024A21A914075
:100850000843194610BD70B54B005B0803430BD02D
:100860004B005C0D002633466542B341D417AD1AE8
:10087000A34102DB0020014670BD12053018514132
:1008800070BD70B5044600688168490720D581684D
:1008900010264907002905DA8168890702D4816892
:1008A0003143816000F058FB05460DE000F054FB39
:1008B000401B0A2808D9A06D3043A065E06D0121D6
:1008C0000843E065084670BD206880684007EDD4A5
:1008D000002070BD38B50446064805490068FFF79A
:1008E00007FC604300E0401E00900028FBD138BDAB
:1008F00040420F0028000020F8B5044600688168D7
:100900008907890F012925D10168C90722D081688B
:10091000052211401025012601290FD181680222EC
:100920001143816021680320086000F015FB074631
:100930000CE000F011FBC01B0A2807D9A06D28436A
:10094000A065E06D3043E0650120F8BD2068806857
:10095000C007EED10020F8BDF8B5044600688168F4
:100960008907890F012902D10168C90722D181684D
:10097000114A10261140012500290ED18168294312
:1009800081600120FFF7A6FF00F0E6FA07460CE0C1
:1009900000F0E2FAC01B0A2807D9A06D3043A06519
:1009A000E06D2843E0650120F8BD20680068C04381
:1009B000C007EDD10020F8BD17000080F8B506464D
:1009C0000D464036317D01290DD001213175016878
:1009D0008A68520709D5816D202211438165002064
:1009E00030750120F8BD0220F8BD204B6A68D8059B
:1009F00047109A421E4C8A6A2B681BD05B035B0B24
:100A00001A438A622968490305D5A1680143A16098
:100A10000A20FFF75FFF2868800302D5A0683843EB
:100A2000A0602868C0031DD5A068012109060843FD
:100A3000A06017E05B035B0B9A438A622968490355
:100A400002D5A1688143A1602868800302D5A0680F
:100A5000B843A0602868C00304D5A168012000063F
:100A60008143A16000203075F8BD00000110000036
:100A7000002701400068006C7047000070B504005A
:100A800006D0A06D264600254036002802D006E09C
:100A9000012070BDE5653575204600F0D1F8A06DE8
:100AA000C00603D421688868400705D5A06D1021D1
:100AB0000843A0653575EBE7A06DFF220132904336
:100AC00002221043A06588688207920F5A48012AC3
:100AD00002D10A68D2072BD1032362689B079A428E
:100AE00005D05B429A4202D05B009A4209D10A6962
:100AF000920092080A6121680A6963681A430A61D0
:100B00000CE00A69920092080A6181680F2292043F
:100B10009143816081686268114381602168CA687D
:100B200018239A43CA602168CA68A3681A43CA6036
:100B3000816801225206914381608168228F5206AA
:100B40001143816020688168C90004D48168012252
:100B50001207114381602068C168384A1140C160A2
:100B60002169E068022923D000210843216A226B11
:100B70004903520011430843616B0843A16989038B
:100B80000843E169C90308432168CA681043C86083
:100B9000A06A0146FF39C23905D0E16A08432168DD
:100BA000CA681043C860606A0121012802D00BE0C6
:100BB0000421DAE7206A002823D0A06D2022104308
:100BC000A065E06D0843E065206C012820681FD017
:100BD0000169C90703D0016949084900016120681A
:100BE0004169C908C900416120684169E26B11434C
:100BF0004161E565A06D80088000401CA065002073
:100C000070BD2068C26801231B041A43C260DBE781
:100C10000269FF239B009A43026120680269636CAA
:100C2000E66C1A43A36C33431A43026120680269DD
:100C30000A430261D3E70000002701401902FEFFCA
:100C400000B500680A4985B088420FD10948416B58
:100C50004215114341631F200090032001900020A2
:100C6000029005206946000700F0B4F805B000BD09
:100C70000024014000100240F8B5044640692546B2
:100C800040350E4608280BD02068C068C00709D040
:100C9000A06D20210843A065002028750120F8BD23
:100CA000082700E00C2700F057F9009011E0701CB5
:100CB0000FD0002E05D000F04FF90099401AB04235
:100CC00007D9A06D04210843A065002028750320E2
:100CD000F8BD206800683842E9D0A06D01214902C2
:100CE0000843A0652068C16809058A0F0C21002A05
:100CF0001AD1226A002A17D10268120714D5826815
:100D000053070122002B08DB43688B434360A06D2F
:100D1000130298431043A06506E0A06D20231843FA
:100D2000A065E06D1043E065A069002801D120684E
:100D300001600020F8BD000070B504462168002065
:100D40008968490721D425464035297D01291CD0D1
:100D500001212975E169012904D02046FFF7FCFD36
:100D6000002811D1A16D0A4A1140FF22013211431E
:100D7000A1650021E165297522681C2111602168A7
:100D80008A6804231A438A6070BD022070BD000087
:100D9000FEF1FFFF70B5054604464035287D012869
:100DA00007D001262E752046FFF76BFD002802D0E4
:100DB0000CE0022070BD2046FFF79EFD002805D103
:100DC000A16DFF22013291433143A16500212975B4
:100DD00070BD0000F8B500230124A2E027469F4023
:100DE0003A4070D04D68022D01D0122D14D1DD088B
:100DF000AD002D1800952D6A5E07AC46F50E0F2646
:100E0000AE46AE406546B543AC460E697546AE404B
:100E100065462E43009D2E624D68012D05D0022DA2
:100E200003D0112D01D0122D16D185680326AC46B2
:100E30005D00AE46AE406546B543AC46CE687546ED
:100E4000AE4065462E43866046680D79BE43ED068A
:100E5000ED0F9D403543456006685F000325BD40AA
:100E6000AE46AE430D79B446AE07B60FBE406546FA
:100E70002E430660C6687546AE438D68BD40354357
:100E8000C5604D68ED004BD5294D6E6B26436E63F2
:100E90009E08284DB6007519AC46AD689E07360F02
:100EA0000F27B740BD4305273F07B84201D10027B0
:100EB00015E0214FB84201D1012710E01F4FB84281
:100EC00002D102270BE02BE01D4FB84201D10327CE
:100ED00005E01C4FB84201D1052700E00627B740C6
:100EE0002F436546AF60184D2E684F689643FF0349
:100EF00000D516432E606E684F689643BF0300D539
:100F000016436E60AE684F689643FF0200D51643E5
:100F1000AE60EE684F689643BF0200D51643EE60A0
:100F20005B1C0A681546DD4000D057E7F8BD00009D
:100F30000010024000000140000400500008005072
:100F4000000C0050001C005000040140002A01D099
:100F500081617047816270470148006870470000F6
:100F60002400002002480168491C0160704700000D
:100F70002400002010B5064801684022114301609A
:100F8000002000F007F800F019F8002010BD000064
:100F90000020024010B5044607487D21C9000068C2
:100FA000FFF7A6F800F062FB00222146501E00F079
:100FB0002BF8002010BD00002800002010B50C48C0
:100FC000416B012211434163816B02041143816330
:100FD00000221146501F00F017F800221146901E03
:100FE00000F012F800221146501E00F00DF810BD5E
:100FF00000100240C106C90E012088400149086066
:101000007047000000E100E010B500F097FE10BD51
:10101000F8B5054653480E460068C007C00FB042F9
:101020000AD250480168490849003143016000680C
:10103000C007C00FB0426FD128784B4C800705D550
:10104000E068F0218843A9680843E0602878C00779
:1010500052D06868022817D0032818D021680128C8
:1010600018D08905002957DAE16889088900014309
:10107000E160FFF771FF69680746022912D0032972
:101080001CD0012926D033E021688903EAE72168D2
:101090008901E7E74907E5E7FFF75EFFC11B334832
:1010A000814223D8E0680007800F0228F4D123E0B2
:1010B000FFF752FFC11B2D48814217D8E068000797
:1010C000800F0328F4D117E0FFF746FFC11B274824
:1010D00081420BD8E0680007800F0128F4D10BE0B3
:1010E000FFF73AFFC11B2148814201D90320F8BD17
:1010F000E0680007800FF3D11A480168C907C90FDB
:10110000B1420BD9016849084900314301600068C8
:10111000C007C00FB04201D00120F8BD28784007B9
:1011200006D5E068072109028843E9680843E060C2
:101130002878000707D5E0680721C9028843296994
:10114000C9000843E06000F01DF8E168084A09069C
:10115000090F515CC840074908600020FFF71AFFDB
:101160000020F8BD0020024000100240881300005B
:10117000183100082800002001480068704700006E
:101180002800002010B5184AD1680C200840042817
:101190000BD0082810D00C2810D050680004410F44
:1011A0000120C003491C884010BD1068C00601D54D
:1011B0000E4810BD0E4810BD0E4810BD88020E4BE3
:1011C000000F185C0902D368890F491CDB0301D5A5
:1011D000084A05E01268D20601D5044A00E0044A34
:1011E0005043FEF785FF10BD0010024000093D008E
:1011F0000024F40000127A0028310008F8B50446F3
:101200000078FE4DC0074AD0E8680007800F02282A
:1012100007D0E8680007800F032809D1E868C003F9
:1012200006D5286880033AD56068002873D036E078
:10123000012062680004824203D1296801432960C9
:1012400011E0052301211B0489049A422A6802D176
:101250000A432A60F1E782432A602A68024000922A
:10126000286888432860606800280CD0FFF774FE67
:10127000064604E0FFF770FE801B64287ED82868CD
:101280008003F7D50BE0FFF767FE064604E0FFF7A3
:1012900063FE801B6428F1D828688003F7D4207887
:1012A000800741D5E8681F270007800F3F0201280B
:1012B00007D0E8680007800F032809D1E868C00359
:1012C00006D42868400717D5E068012823D113E029
:1012D000E068002817D0296809229143014329605A
:1012E000FFF73AFE064604E0FFF736FE801B0228B1
:1012F000C4D828684007F7D568682169B84309024F
:101300000843686010E02868400840002860FFF744
:1013100023FE064605E095E0FFF71EFE801B02282F
:10132000ACD828684007F7D42078C00672D5E868A2
:10133000B34E0007800F0AD0E06900282868B14941
:101340005AD008432860FFF707FE074644E02868A4
:10135000800502D5E069002874D0606A6968314070
:10136000884212D900F00EFD0028AFD16868616A8A
:10137000B043084368606868000200E0DCE0218C4C
:10138000000A0906084368600FE06968B143014339
:1013900069606868218C0002000A090608436860D9
:1013A000606A00F0EFFC002890D1606A410B0120D8
:1013B000C003491C8840E96809060A0F9249895C04
:1013C000C840924908600020FFF7E4FD22E0FFF7E3
:1013D000C3FDC01B02288BD828688005F7D5686834
:1013E000616AB043084368606868218C0002000AA3
:1013F0000906084368600DE088432860FFF7ACFDEC
:10140000064604E0FFF7A8FD801B022888D828685C
:101410008005F7D420787E4E000723D56069002828
:10142000306910D0012108433061FFF795FD074670
:1014300004E0FFF791FDC01B02287DD830698007CA
:10144000F7D50FE001E1400840003061FFF784FD6F
:10145000074604E0FFF780FDC01B02286CD8306906
:101460008007F7D42078400760D5A86B0027C0001C
:1014700005D4A86B012109070843A8630127654823
:101480000168C90511D40168821511430160FFF795
:1014900063FD009005E0FFF75FFD0099401A6428A6
:1014A0004AD85C480068C005F5D55648A268824213
:1014B00003D131690143316111E001218902002A20
:1014C00007D005231B029A4203D132690A433261D5
:1014D000EFE7326982433261306988433061A06846
:1014E00000280ED0FFF738FD009006E0FFF734FD2E
:1014F0000099411A484881421ED830698005F5D5C7
:101500000DE0FFF729FD009006E0FFF725FD0099AB
:10151000411A414881420FD830698005F5D4002F27
:1015200004D0A96B012000078143A96320788006BD
:1015300030D53A48421400E080E0A169002916D075
:10154000AB6801210B43AB606B6B0B436B63016AB0
:1015500011430162FFF700FD064604E0FFF7FCFCC3
:10156000801B02286AD8A8688007F7D512E0A9680E
:1015700049084900A960016A91430162FFF7ECFC48
:10158000064604E0FFF7E8FC801B022856D8A8684E
:101590008007F7D4A06A002855D0E9680907890FA9
:1015A000032952D0012636060228286805D0B04308
:1015B0002860FFF7D1FC044642E0B0432860FFF703
:1015C000CBFC074604E0FFF7C7FCC01B022835D858
:1015D00028688001F7D4216BE06AEA680843616BF0
:1015E000FD231B049A4311430843E86028683043F5
:1015F0002860FFF7B1FC044617E00000001002402D
:1016000000E0000000010000183100082800002060
:1016100040100240007000408813000000000140AC
:10162000FFF79AFC001B022808D828688001F7D52C
:1016300009E0FFF791FC001B022801D90320F8BD47
:1016400028688001F5D40020F8BD0120F8BD000015
:10165000042204490428086902D0904308617047B5
:101660001043FBE700E000E070470000094910B5B7
:10167000401E884201D9012010BD074C6061032142
:10168000081F00F05BFB0020A06107202061002004
:1016900010BD0000FFFFFF0000E000E010B5FFF705
:1016A000E3FF10BD70B502462032137D012B1BD025
:1016B0000123137502245475046865687026B543C8
:1016C0006560046865680E68354365600468A568F0
:1016D0008026B543A5600068846849680C4384602F
:1016E00053750020107570BD022070BD70B50400E8
:1016F00005D025462035687D002802D006E001206F
:1017000070BD00202875204600F00AF80220687598
:10171000211D206800F08EFC01206875002070BD3E
:1017200010B50122016892070B4891420CD1816BE0
:10173000012211438163002211460F20FFF764FC50
:101740000F20FFF757FC10BD044A9142FBD1416BBB
:1017500020221143416310BD0010024000140140DB
:101760000268D36801210B43D360006802680A4312
:1017700002600020704700000168CA6852085200E9
:10178000CA600068016A044A114203D1016849082D
:10179000490001600020704711110000F8B50546AE
:1017A00004462035287D012817D001272F750220F7
:1017B0006875226890687726FF23B0431B02984320
:1017C00090600868502837D00EDC202857D006DCFF
:1017D00000284ED0102840D14EE00220F8BD30281D
:1017E00050D0402839D13CE060282DD0702817D047
:1017F00001221203801A0ED090422ED1CB684A6883
:101800008968206800F049FC206881680122920301
:101810001143816021E020688168C908C900F8E7A8
:10182000CB684A688968206800F037FC21688868BE
:10183000B0433043886010E0CA684968206800F00F
:10184000A6FC5021206806E0CA684968206800F0BC
:10185000AFFC6021206800F02BFC6F75002028751C
:10186000F8BDCA684968206800F091FC40212068F2
:10187000F1E700212068EEE710212068EBE7202146
:101880002068E8E730212068E5E7704770B5044636
:10189000006801690025C9438907002915DBC16873
:1018A000C943890711D4E91E016101202075206810
:1018B00080698007204602D0FFF7E7FF04E000F0D0
:1018C00091F8204600F012F9257520680169C94396
:1018D000490717D4C168C943490713D40421C94330
:1018E000016102202075206880698005800F2046F4
:1018F00002D0FFF7CAFF04E000F074F8204600F0C1
:10190000F5F8257520680169C943090716D4C1682F
:10191000C943090712D40821C94301610420207575
:101920002068C0698007204602D0FFF7AEFF04E0C0
:1019300000F058F8204600F0D9F8257520680169B4
:10194000C943C90617D4C168C943C90613D41021B5
:10195000C9430161082020752068C0698005800F97
:10196000204602D0FFF791FF04E000F03BF820464C
:1019700000F0BCF8257520680169C943C90708D182
:10198000C168C943C90704D1891E0161204600F01E
:10199000BBF820680169C943490609D4C168C94335
:1019A000490605D44021C9430161204600F0ADF845
:1019B00070BD000000B50068094985B088420CD1AF
:1019C000402000900220019000200290039005200A
:1019D000049069460007FFF7FDF905B000BD00005F
:1019E000001401407047F8B5064604462036307DA5
:1019F0000D4601280DD00120307502207075042796
:101A0000002A08D0042A16D0082A2AD00C2A4DD140
:101A100037E00220F8BD206800F052FB20688169A1
:101A200008221143816120688169B943816120687E
:101A30008169EA6812E0206800F05AFB2068826938
:101A40000121C9020A438261206881690122920250
:101A50009143816120688169EA68120211438161C2
:101A600024E0206800F05DFB2068C26908210A4379
:101A7000C2612068C169B943C1612068C169EA686F
:101A800012E0206800F068FB2068C1690122D202E0
:101A90001143C1612068C269012189028A43C26180
:101AA0002068C169EA6812021143C16101207075A2
:101AB00000203075F8BD70B5040005D025462035EE
:101AC000687D002802D006E0012070BD0020287546
:101AD000204600F00AF802206875211D206800F0F9
:101AE000A9FA01206875002070BD7047704710B5D5
:101AF00004460068012200F0C5FA2068016801224E
:101B000011430160002010BD70477047FEE70000E0
:101B10001CB529482749016009229204426000212E
:101B20000164102282600124C16004610162072205
:101B30004462C263FF22C162C232826201634163B6
:101B40008161042281634261C161FEF797FF002831
:101B500000D0FEE70120000301906946009416487A
:101B6000FEF72CFF002800D0FEE7144800906946DD
:101B70001148FEF723FF002800D0FEE71048009030
:101B800069460D48FEF71AFF002800D0FEE70D4811
:101B9000009069460848FEF711FF002800D0FEE7D4
:101BA0000948009069460448FEF708FF002800D065
:101BB000FEE71CBD002401403000002002000004AC
:101BC000040000080800000C10000010F0B52048C8
:101BD00087B0C26A04210A43C262C26A0A400592FF
:101BE000C16A01252943C162C16A29400591C26ABF
:101BF00002210A43C262C06A164C0840164E059084
:101C0000002221463046FFF7A1F9144F002203219C
:101C10003846FFF79BF90094002401950294694629
:101C200030460394FFF7D6F80320009002946946EB
:101C3000019503943846FFF7CDF81C2000900194DD
:101C4000694602943846FFF7C5F807B0F0BD0000BA
:101C500000100240FF1F0000000800500004005068
:101C600010B51E488AB01C49016000246A218460B6
:101C7000416063210461C160FFF738FD002800D096
:101C8000FEE701200003049004A91448FFF786FD35
:101C9000002800D0FEE71148FFF70DFF002800D014
:101CA000FEE7089408A90D480994FFF7FBFC0028FB
:101CB00000D0FEE760200090019402940022694663
:101CC00003940648FFF78FFE002800D0FEE7034884
:101CD000FFF770FE0AB010BD00140140C8000020DC
:101CE00010B50121124886B08907016000241F2128
:101CF000846041600F490461C160FFF7F7FC002870
:101D000000D0FEE701200003009069460848FFF775
:101D100045FD002800D0FEE7049404A9044805947A
:101D2000FFF7C0FC002800D0FEE706B010BD0000A1
:101D300090000020E7030000704700008307FF22A7
:101D4000DB0E9A408907090E994000280BDA00073C
:101D5000000F0838830808489B001818C36993438C
:101D60000B43C3617047830804489B001B18186825
:101D7000904308431860704700ED00E000E400E085
:101D80007047000070B517490023CA681206120F89
:101D900018D18A6B154CD500134A02D5126822401F
:101DA00009E08E6B01252D072E438E6312688E6B22
:101DB0002240AE438E63A24204D1032189038842AC
:101DC00000D101230A48016849084900194301600C
:101DD0000068C007C00F984201D0012070BD0020EC
:101DE00070BD0000001002400070004000180000AC
:101DF00000200240704710B5FFF7B4F8FFF74EFC23
:101E000010BD000010B51E4894B001680322D20234
:101E10009143C214891801600220009001210A90A8
:101E2000039140040C900001102100240D900B94AC
:101E300004916846FFF7E2F9002800D0FEE70F2082
:101E40000E9003200F9010941194012112940EA86B
:101E5000FFF7DEF8002800D0FEE7FFF78DF97D21BF
:101E6000C900FEF745F9FFF701FC0420FFF7F0FB7E
:101E700000221146501EFFF7C7F814B010BD000035
:101E80000070004010480168821511430160C1686C
:101E90000E4A1140C16001680D4A1140016081681D
:101EA0004908490081600168012292049143016060
:101EB000C168FD2212049143C160002101610549FE
:101EC000C003886070470000001002400C40FF888B
:101ED000F6FFF6FE00ED00E0F8B54A480323077868
:101EE00049480278501CC4B24848022F10D0494DCE
:101EF00047492E780125B540464EAC4675780126F7
:101F0000AE40062F15D0072F33D0012F54D06DE0EF
:101F100083623D49404B0C701B789A4204D23F4A81
:101F2000137801229A4082610A2C5FD10020087048
:101F30005CE03B4F3D780127AF40002A02D0012AE8
:101F400009D00FE08362374B4B6101238361604608
:101F50003843886206E08362324B4B61022383611F
:101F60003E438E622848022A04703FD3002101704C
:101F70003CE02D4D2D78002D38D0234D002A04D083
:101F8000012A0AD0022A0FD02BE08362254B4B6135
:101F9000012383612348401E0CE08362214B4B6187
:101FA00002238361214805E083621E4B4B610223BB
:101FB00083610120886214E0134D002A04D0012AB5
:101FC00009D0022A16D00CE08362164B4B61012324
:101FD00083616046EEE78362124B4B6102238361AB
:101FE0008E622C70032A01D3002028701048FFF75E
:101FF0004DFCF8BD83620B4B4B61022383610548A6
:102000008078D7E700000020210000200004005065
:1020100000080050060000200300002005000020FA
:1020200004000020FF1F00000100002048120000F3
:102030009000002070B5026801239B070F4C104DE3
:10204000984203D0A04201D0A84203D17026B243E7
:102050004E683243984203D0A04201D0A84204D136
:1020600003231B029A43CB681A4302608A68C26248
:10207000096881620121416170BD000000080140D2
:102080000014014010B50123046A8B409C43046294
:10209000036A8A401343036210BD30B58468FF258C
:1020A0002D021B021343AC430B432343836030BD1B
:1020B000826870239A430A4307210A43826070476B
:1020C00030B5026A520852000262026A45688369AA
:1020D0007024A3439C080B68A40023430224A2435A
:1020E0008C6845601443836149684163046230BD74
:1020F00030B5026A10239A430262036A4568826916
:1021000073242402A2430C68240214432022934324
:102110008A68456012011A438461496881630262DA
:1021200030BD30B5026AFF2301339A430262026A6E
:102130004568C3697024A3439C080B68A40023432B
:1021400001246402A2438C68456024021443C361E5
:102150004968C163046230BD30B5026A01231B03C4
:102160009A430262036A4568C26973242402A24347
:102170000C68240214430122520393438A68456089
:1021800012031A43C46149680164026230BD30B56C
:10219000036A046A6408640004628469F025AC433D
:1021A000120122430A24A3430B438261036230BD20
:1021B00030B5036A1024A34303628469036A0F25C0
:1021C0002D031203AC432243A024A3430901194366
:1021D0008261016230BD2021020C01D01021104625
:1021E000020A01D010460839020901D01046091F21
:1021F000820801D01046891E420801D0881E70470F
:10220000081A704730B47446641E2578641CAB42CB
:1022100000D21D46635D5B00E31830BC1847000028
:102220004900CA020243100000D004204A0D01D028
:1022300001221043044A490D914201D10221084371
:10224000012800D105207047FF070000F8B50446BB
:102250004F1EC8000838211815461E4608684968F0
:102260003A4606239A4310D02A463346FEF762F8D0
:102270003A46D200083AA3181A687F1E5B68FDF739
:10228000A7FF06223B469343EED1022F23D0042F13
:1022900011D0062F2FD12A463346FEF74BF8E36ABA
:1022A000A26AFDF795FF2A463346FEF743F8636AB4
:1022B000226AFDF78DFF2A463346FEF73BF8E369B5
:1022C000A269FDF785FF2A463346FEF733F86369B6
:1022D0002269FDF77DFF2A463346FEF72BF8E368B7
:1022E000A268FDF775FF2A463346FEF723F86368B8
:1022F0002268FDF76DFFF8BD10B50122FEF7ABFABD
:1023000010BD10B5FDF764FF10BD0000034A10B505
:1023100000201107FEF79FFA10BD000001FDFFFF2E
:1023200002E008C8121F08C1002AFAD1704770479E
:10233000002001E001C1121F002AFBD170470000FC
:1023400001490860704700002C000020F8B52648BD
:10235000FEF7F2FC254D00240A212348FEF78CFCF1
:102360002148FEF787FB2855641CE4B2052CF3D303
:102370001D48FEF70FFD00240020054600907F2138
:10238000C9050098FDF7CAFE0090FEF7D5F80022B7
:10239000174BFDF7CFFF0022164BFDF719FF06463E
:1023A00012480F46005DFEF7B9F832463B46FEF78D
:1023B000D7F810D80098FEF7BFF80F4A0F4BFDF77B
:1023C000B9FF00220E4BFDF7A7FF074BE200D03309
:1023D0009A1803C203E06D1CEDB2142DCFD3641C18
:1023E000E4B2032CC8D3F8BD300000201000002058
:1023F00000001140004055409A9999999999B93F28
:102400000000F03FF0B589B004460D464800069143
:1024100072494008884215DB7149884203DC8842D2
:1024200007D1002C05D020462946FFF765FF09B0EB
:10243000F0BD6C48002D02DD6B4909B0F0BD6B4961
:1024400009B0F0BD6A49884211DA6A4988420BDA5C
:1024500020462946FFF7E4FE042801D1FFF756FF86
:102460002046294609B0F0BD0026F6435DE06D0028
:1024700061496D08884232DA6049884219DA0026DB
:10248000012332469B0720462946FDF7A1FE074659
:102490000191012220462946FEF7DDF90022584B22
:1024A000FDF73AFF3A46019BFDF7ACFF04460D46A7
:1024B0003BE001260022524B20462946FDF788FECC
:1024C0000746009100224E4B20462946FDF724FF87
:1024D0003A46009BFDF796FF04460D4625E0494924
:1024E000884219DA02260022474B20462946FDF78A
:1024F00021FF0022424BFDF76BFE074602910022AE
:10250000414B20462946FDF707FF3A46029BFDF75F
:1025100079FF04460D4608E0032622462B4600209C
:102520003A49FDF76FFF04460D4622462B461046FA
:102530001946FDF7FFFE07460B4602460191FDF7DF
:10254000F9FE0246029032480B4603910621784478
:10255000FFF77CFE3A46019BFDF7ECFE00902D480C
:10256000019105217844039B029AFFF76FFE039BBC
:10257000029AFDF7DFFE02460B4601990098002EF5
:102580000BDAFDF725FE22462B46FDF7D3FE224649
:102590002B46FDF7C7FE09B0F0BDFDF719FE224638
:1025A0002B46FDF7C7FE1C4AF6007A4493191A68B9
:1025B0005B68FDF7B1FE22462B46FDF7ADFE174ADC
:1025C0007A4493191A685B68FDF7ACFE069A002AF4
:1025D000E1DA0122D207514009B0F0BD00001044F9
:1025E0000000F07F182D4454FB21F93FFB21F9BF77
:1025F0000000DC3F0000203E0000F33F0000E63F0B
:102600000000F03F008003400000F83F0000F0BFF2
:102610004E0C0000100C0000AA0B0000740B000010
:10262000F0B51FB4039B54425D00164626439C46FA
:10263000F40F6D084B004E4E5B082C438E46B4429F
:1026400005D847420743FC0F1C43B44204D96346F4
:10265000FFF757FE05B0F0BD464E6644164309D05D
:10266000CC0F6646B61702273E40264304461C435D
:1026700004D00BE0FFF7C6FE05B0F0BD002EFBD086
:10268000012EF9D0022E32D0032E34D014462C4322
:102690000BD0374CA54216D1A3420AD1012189079C
:1026A0008D438B43194603950DE0704600280FDBE0
:1026B00025E0314F7F44002E0ED0012E10D0022E87
:1026C00015D0032E17D0A3421DD17046002816DA6C
:1026D0002A482B4905B0F0BD7968386805B0F0BDCF
:1026E00001227968D2073868514005B0F0BD23480F
:1026F000244905B0F0BD2148234905B0F0BD1F486D
:10270000224905B0F0BD5B1B1B153C2B02DD1B48AD
:102710001E490FE06446002C05DA3C24E34202DA4D
:102720000020014606E0039BFDF76CFE49004908C6
:10273000FFF768FE002EE4D0012E0BD0144A154B93
:10274000022E0CD0FDF7E8FD0C4A0E4BFDF7E4FD20
:1027500005B0F0BD0122D207514005B0F0BDFDF734
:10276000DBFD064A074BFDF7DDFD05B0F0BD0000BF
:102770000000F07F000010C0180B0000182D44541A
:10278000FB21F9BFFB210940FB2109C0FB21F93FD7
:10279000075C143326A6A13C10B50848017882785E
:1027A000914209D081700648FEF7E6FF05490320F3
:1027B000886206490448486110BD000000000020FE
:1027C0009000002000040050FF1F0000000800508F
:1027D00070B51B4D2878A978AC1D884211D0A8701F
:1027E0001849032088621949174848611848FEF7BC
:1027F000B7FF0620207060700020A070FEF7ACFBD1
:10280000E860FEF7A9FBE968401A7D21C90088420B
:1028100015D32078401CC1B2012021700C2902D0B0
:102820000D2908D008E06178491CC9B261700D29F2
:1028300002D1607000E02070FEF78EFBE86070BD92
:102840000000002000040050FF1F0000000800509E
:102850009000002070B5184C00252078A17888429F
:102860000ED0A070154903208862164914484861AB
:102870001548FEF775FFFEF76FFBE0606571257187
:10288000FEF76AFBE168401AC82813D32079401C80
:102890002071FEF761FBE0602079E178052801D224
:1028A000891C00E0891EE1700A2803D325710120EC
:1028B0006071E57070BD0000000000200004005051
:1028C00001E0FFFF0008005090000020F8B52D48FF
:1028D0000326017880782C4C2C4F2D4D81420AD054
:1028E000284881702B48FEF747FFA6626F61FEF70C
:1028F00033FB2449C860FEF72FFB2249C968401A00
:1029000064283ED3FFF722FD2249234A703103C9D0
:10291000224BFDF725FE03D2A6626F6101200AE07B
:102920001C491F4A703103C91E4BFDF719FE05D221
:10293000A6626F610220A06108201DE01549184AB7
:10294000703103C9184BFDF70BFE05D2A6626F610B
:102950000220A06101200FE00E490F4A703103C927
:10296000124BFDF7FDFDA6626F6101D2022000E06F
:102970000120A06101204002A862FEF7EDFA0149A2
:10298000C860F8BD0000002000040050FF1F0000D8
:102990000008005090000020666666666666E6BF26
:1029A000333333333333D3BF3333D33F6666E63FFA
:1029B000F8B52B480326017880782A4C2A4F2B4DF6
:1029C00081420AD0264881702948FEF7D5FEA662CA
:1029D0006F61FEF7C1FA2249C860FEF7BDFA2049CF
:1029E000C968401A642839D3FFF7B0FC1C4810307E
:1029F000C078FDF793FD1F4A1F4BFDF79BFC00229B
:102A00001E4BFDF7FFFCFDF7D3FD1D4A012190424F
:102A100003DAA6626F61A16106E01A4B02229842B6
:102A200005DAA6626F61A2610120400211E0012374
:102A30009B07984204DAA6626F61A261A96209E06D
:102A4000114BA66298426F6101DAA26100E0A161B8
:102A50000820A862FEF780FA0149C860F8BD0000AE
:102A60000000002000040050FF1F0000000800507C
:102A7000900000206666666666660A4000E06F4069
:102A8000CDCC4C3F9A99993F9A991940F8B57A481C
:102A90000178807881420DD0774C7848A170FEF79C
:102AA0006BFE774903208862774976484861FEF7D4
:102AB00053FAE060FEF750FA6F49C968401A64287B
:102AC00076D3FFF743FC6D4C7034E168A0680B4689
:102AD0000246FDF72FFC05460E4603CC02460B4688
:102AE000083CFDF727FC2A463346FDF771FB00F052
:102AF000C3FA00910746E168A0680CCCFFF790FD8F
:102B0000624A634BFDF77EFC0022624BFDF712FC2C
:102B10000E4605465A49032088625B4C594860615D
:102B20005D4A5E4B38460099FDF71AFD04D25449C0
:102B300002208861012071E0594A5A4B38460099B9
:102B4000FDF70EFD51D24E48022787610022564BF9
:102B500028463146FDF704FD01D208205EE0002240
:102B6000524B28463146FDF7FBFC01D2042055E0CC
:102B700000224F4B28463146FDF7F2FC01D2A762F6
:102B80004DE000224B4B28463146FDF7E9FC4BD285
:102B90000120000342E00120C0023FE00022464B3A
:102BA00028463146FDF7DCFC46D20120800235E0A4
:102BB00039E00120400231E00022404B28463146F6
:102BC000FDF7CEFC40D2FF20013027E0802025E039
:102BD00000223B4B28463146FDF7C2FC3CD2402048
:102BE0001CE020201AE0102018E025480121816116
:102BF00000222D4B28463146FDF7B2FCADD3002212
:102C00002A4B28463146FDF7ABFCAFD30022284BB8
:102C100028463146FDF7A4FCB3D20220A062FEF79D
:102C20009BF91549C860F8BD0022264B284631465D
:102C3000FDF796FCB2D2AEE70022234B2846314680
:102C4000FDF78EFCB8D2B4E70022204B284631466F
:102C5000FDF786FCBCD2B9E700221D4B2846314661
:102C6000FDF77EFCBDD300221A4B28463146FDF706
:102C700077FCD4D2B7E700000000002090000020CD
:102C800000040050FF1F0000000800504AD8124DF9
:102C9000FB21094000806640333333333333D33F65
:102CA000666666666666E63F00002E400080464027
:102CB00000C0524000405A4000A0644000206C40D8
:102CC00000D0714000E060400060684000E06F406C
:102CD00000B0734000907540F8B53D4C2078A17865
:102CE00088420ED0A0703B49032088623B493A4895
:102CF00048613B48FEF734FDFEF72EF9E060012005
:102D00002071FEF729F9E168411AC8295FD33548D7
:102D100000214163FFF71AFB314F7037F968B8683B
:102D20000B460246FDF706FB05460E4603CF02465C
:102D30000B46083FFDF7FEFA2A463346FDF748FAF0
:102D400000F09AF905460E46F968B8680CCFFFF70F
:102D500067FC254A254BFDF755FB0022244BFDF768
:102D6000E9FA07461A4800910179224A491C017183
:102D7000214B28463146FDF707FC24D80124204684
:102D80001E2148430F38FDF7B5FB3A46009BFDF77F
:102D9000FBFB14D80E481530015D153800798142CF
:102DA00002D1104832214163144A154B284631465E
:102DB000FDF7D6FB134801D2447000E00470641C98
:102DC000E4B20D2CDBD3FEF7C7F80149C860F8BDAB
:102DD0000000002000040050FF1F00000008005009
:102DE00090000020001401404AD8124DFB210940F8
:102DF00000806640333333333333D33F66666666D1
:102E00006666E63F06000020F8B56C4C2078A17895
:102E100088420CD0A0706A49032088626A496948D8
:102E200048616A48FEF7A8FCFEF796F8E060FEF7F6
:102E300093F86249C968401A64286FD3FFF786FA8D
:102E4000624E7036F168B0680B460246FDF772FAC2
:102E500004460D4603CE02460B46083EFDF76AFACD
:102E600022462B46FDF7B4F900F006F904460D465C
:102E7000F168B0680CCEFFF7D3FB554A554BFDF710
:102E8000C1FA0022544BFDF755FA06460F464B484F
:102E900000214170514A524B20462946FDF760FB04
:102EA00003D246480121417082E04E4A4E4B2046F3
:102EB0002946FDF755FB06D2414903208862424965
:102EC0004048486174E03E48032585623E4C3D49D8
:102ED000616185610022454B30463946FDF740FB74
:102EE00001D2092063E00022414B30463946FDF70C
:102EF00037FB01D205205AE000223E4B30463946CE
:102F0000FDF72EFB01D2A56252E000223A4B30467B
:102F10003946FDF725FB02D2384848E04CE0002254
:102F2000374B30463946FDF71BFB01D235483EE0B2
:102F30000022354B30463946FDF712FB01D23348AB
:102F400035E00022324B30463946FDF709FB01D20D
:102F500030482CE00022304B30463946FDF700FB6C
:102F600002D2FF20023022E000222C4B30463946AC
:102F7000FDF7F6FA01D2812019E00022284B3046F5
:102F80003946FDF7EDFA01D2412010E00022254B31
:102F900030463946FDF7E4FA01D2212007E000224D
:102FA000214B30463946FDF7DBFA01D21120A062F1
:102FB000FDF7D2FF0149C860F8BD00000000002005
:102FC00000040050FF1F0000000800509000002087
:102FD0004AD8124DFB210940008066403333333319
:102FE0003333D33F666666666666E63F00002E4072
:102FF0000080464000C0524000405A40011000008E
:1030000000E060400108000000A0644001040000EE
:10301000006068400102000000206C4000E06F404A
:1030200000D0714000B0734000907540FDF7A2FFE2
:10303000FEF7E8FEFEF7CAFDFEF76AFDFEF710FE9A
:10304000FEF74EFE0749032088620849064848619A
:1030500000210748FEF74BFD06490020486300F0B9
:103060002FF8FCE700040050FF1F0000000800508C
:10307000C800002000140140F8B506460C46FDF7D4
:1030800076FB051E0F4600D00120014349000B4886
:103090004908411AC90F0DD0002E01D0012100E0CE
:1030A00000210C4361004908401AC00F02D10120E1
:1030B000FFF746F928463946F8BD00000000F07FCA
:1030C00010B5134800691349C006400F087003008B
:1030D000FFF798F80805080B0E1114171A07FFF7E9
:1030E0005BFB10BDFFF774FB10BDFFF7B3FB10BD1A
:1030F000FFF7ECFB10BDFFF75BFC10BDFFF7C6FC54
:1031000010BDFFF7E9FD10BDFFF77EFE10BD00000A
:10311000000400500000002000000000000000003B
:103120000102030406070809030406080C1018200E
:1031300030000000000000004FBB610567ACDD3FC0
:10314000182D4454FB21E93F9BF681D20B73EF3FCE
:10315000182D4454FB21F93FE2652F227F2B7A3C46
:10316000075C143326A6813CBDCBF07A8807703CFF
:10317000075C143326A6913CC4EB98999999C9BF72
:10318000711623FEC671BCBF6D9A74AFF2B0B3BFA7
:103190009AFDDE522DDEADBF2F6C6A2C44B4A2BF67
:1031A0000D5555555555D53FFF8300922449C23FD3
:1031B0006E204CC5CD45B73F513DD0A0660DB13F07
:1031C000EB0D76244B7BA93F11DA22E33AAD903F19
:1031D0000000000000000000F8310008000000209E
:1031E00030000000202300082832000830000020B2
:1031F000E804000030230008000000000000000088
:1032000000000000000000000000000000030201B8
:103210000C0B0A0908070605040000000000000066
:0832200080841E000000000084
:04000005080000C12E
:00000001FF
