:020000040800F2
:1000000088050020D5000008D1200008051E000842
:1000100000000000000000000000000000000000E0
:100020000000000000000000000000008124000823
:100030000000000000000000EF22000883240008F8
:10004000E7000008E7000008E7000008E7000008F4
:10005000E7000008E7000008E7000008E7000008E4
:10006000E7000008E7000008E7000008E7000008D4
:1000700005080008E700000800000000E70000088D
:1000800000000000E7000008000000000000000081
:10009000E700000800000000E7000008E700000893
:1000A000E7000008E7000008E7000008E700000894
:1000B000E7000008E700000800000000E700000873
:1000C0000348854600F0F8FA004800473D3900082B
:1000D000880500200448804704480047FEE7FEE703
:1000E000FEE7FEE7FEE7FEE741250008C100000845
:1000F00030B50B46014600202022012409E00D46C0
:10010000D5409D4205D31D469540491B2546954047
:1001100040191546521E002DF1DC30BD024670B567
:100120004A40D30FDB0740002DD04A002AD0010EF1
:10013000140E000212020919400A520A8418E5013D
:1001400004465443000A120A2E045043A4194219CB
:10015000200CC543AA18120C0125AD03521C5219DC
:1001600012047F39240400D0521C104301D44000F3
:10017000491EC2B20C06C0092018401C4008802A43
:1001800002D003E0002070BD40084000002900DAE2
:100190000020184370BD70B502464A40D50F40009C
:1001A0004A00ED0740085208002814D0002A12D057
:1001B000C40DD30D41020120C0055202490A520A62
:1001C000E41A091812187D34914201D3641C00E02E
:1001D0004900002C01DA002070BD0023914201D3B8
:1001E000891A0343400849000028F7D100290AD0A2
:1001F000914202D10121C90705E0914201D20121BA
:1002000001E00121C943E005C018401900F04CF895
:1002100070BD10B500229623114600F04DF810BDB8
:10022000C20FD207400040080BD0C10D0723DB01ED
:10023000C91840020905400A1143C208400711438A
:100240007047002001467047F0B51FB406460020F5
:1002500082B005464024019100901BE0019922469E
:100260000F46304600F04AFA049A059B801A9941DD
:1002700010D310461946224600F030FA361A8F4144
:100280000197224601200021009F00F027FA38182C
:100290004D4100902046641E0028DFDC019B009841
:1002A0002946324607B0F0BD002904DA401C490057
:1002B00001D140084000704770B40024050C05D1FE
:1002C0001024000402D1002921D01124050E01D1EF
:1002D00000020834050F01D10001241D850F01D152
:1002E0008000A41C002801DB4000641C002908D009
:1002F00020252E1B0D46F540A14000D001212943A9
:10030000084301061B1B000ADB1D02D5002070BC40
:100310007047DB05181880180029F8DA401C4900DE
:10032000F5D170BC4008400070470000F0B50746AA
:100330000846584087B0C00F049048000E46590048
:1003400040084908BC1A884105D2384631461E4645
:1003500017460B4602465800400810434CD0300D5B
:10036000039040055900400D490D0590401A029038
:10037000402872DA18030121000B09050843019097
:1003800004980092002805D001995242002088412B
:1003900000920190029840210A1A0199009800F0F9
:1003A0009DF905460C466B4607CB00F0B8F9C0191D
:1003B0007141039A0E0D0023D71756401A467A4012
:1003C000164344D0049A002A2DD0029A012A039A97
:1003D00015DC1205C01A914101263605001C714139
:1003E000D20F059ED2070093019202962A46234619
:1003F00000F0B5F907B0F0BD38463146FAE716050A
:10040000224A0F46B218C01AB74101210905001C43
:100410004F4100187F41114618187941E20F1043EF
:100420006D19644113E0E2076D0815436408C207C3
:100430001443039A01261205C01A91413605001C87
:100440007141CE07400830434908C01851412A463F
:10045000234600F077F9CDE7FFE70498012240003A
:10046000C117121A00238B4104983146C417381A59
:10047000A141EEE730B40124E407634030BC55E706
:1004800030B40124E407614030BC4FE70000E0FFD6
:10049000F0B51FB488B00B99099800244840099919
:1004A000C00F490049080991C0070B990090490005
:1004B00049080B9109990898A64608431CD00B9946
:1004C0000A98084318D0099801244000420D4800BA
:1004D000410D099824050003000B204309900B9857
:1004E0000003000B20430B9050181C4940180022B9
:1004F00001901446104605E0002001460DB0F0BD05
:10050000032801DA034600E003239C46C11A0AAE21
:100510000AE05F0008ADED5B4F00F75B7D4300270D
:10052000AA187C41491C5B1E6145F2DD410004AB09
:100530005A522104120C0A43240C401C0828DFDB09
:10054000019802900099704601910090059B049AD1
:100550000799069800F003F9D0E700000DFCFFFFB3
:10056000F0B50C465C4085B0E40FE40703944C0002
:100570000026640859009446490802460296224320
:1005800021D062460A431ED06200570D4A000E0376
:100590002303550D012402462C492405781B1B0B0F
:1005A000360B401823432643614600901C46501AE0
:1005B000B44103D30098401C009002E092180098C8
:1005C0005B41002803DA0020014605B0F0BD0020A1
:1005D000012109050746864611E064461D46141BA5
:1005E000B54106D36546521BB341744607430C43DD
:1005F000A646CD0740084908284392185B410546A6
:100600000D43EAD11046184313D0604619465040B6
:100610007140084306D06046101AB34106D2012249
:10062000002306E000220123DB0702E00122D2437F
:100630005310009874460105381C6141029C039DCB
:100640000019694100F07EF8BFE70000FD030000DB
:100650004A0009030123090B1B0519430A4B10B576
:10066000520D9A4202DA0020014610BD064B343387
:100670009A4203DC9A1A00F041F810BD034BD218DD
:1006800000F02CF810BD0000FF030000CDFBFFFFC1
:1006900010B5002904DB0124E40740428C412146C7
:1006A000002B04DB1C460123DB075242A341994285
:1006B00000D1904210BD0000064C0125064E05E019
:1006C000E36807CC2B430C3C98471034B442F7D373
:1006D000FFF7FAFC244000084440000810B5202A27
:1006E00004DB0146203A9140002010BD91402023B8
:1006F0009C1A0346E3401943904010BD10B5202AD0
:1007000004DB0846203AD040002110BD0B46D34000
:10071000D0402024A21A91400843194610BD10B5BC
:10072000202A06DBCB170846203A1041C1170B439D
:1007300006E00B461341D0402024A21A9140084302
:10074000194610BD10B5002B08DA0024401C614189
:1007500092185B411A4301D14008400010BDF0B52A
:100760001FB482B005460C0003D0084601F0F8FF24
:1007700002E001F0F5FF20300246009021462846B5
:10078000FFF7ACFF049B059A04460F46184311433C
:10079000084314D0184610431BD0009840210A1A71
:1007A00018460599FFF7AAFF05460E46009A0599D7
:1007B0000498FFF793FF084305D0012004E020468A
:1007C000394607B0F0BD0020C11705430E432C4346
:1007D000374300990E986305401A7905E40A002210
:1007E0000C43FD0A0A3002D500200146E9E7010565
:1007F000101969410C9C0D9D00196941FFF7A2FF7A
:10080000DFE7000010B5024800F097F810BD0000C7
:10081000C800002038B50446064805490068FFF7BF
:1008200067FC604300E0401E00900028FBD138BD0B
:1008300040420F0090000020F8B50446006881682F
:100840008907890F012902D10168C90722D181686E
:10085000114A10261140012500290ED18168294333
:1008600081600120FFF7D6FF00F040FB07460CE057
:1008700000F03CFBC01B0A2807D9A06D3043A065DF
:10088000E06D2843E0650120F8BD20680068C043A2
:10089000C007EDD10020F8BD17000080F8B506466E
:1008A0000D464036317D01290DD001213175016899
:1008B0008A68520709D5816D202211438165002085
:1008C00030750120F8BD0220F8BD174B6A68D805C5
:1008D00047109A42154C8A6A2B6812D05B035B0B57
:1008E0001A438A622968490305D5A1680143A160BA
:1008F0000A20FFF78FFF2868800312D5A0683843CD
:100900000EE05B035B0B9A438A622968490302D5B8
:10091000A1688143A1602868800302D5A068B8431C
:10092000A06000203075F8BD0110000000270140D4
:10093000704770470068006C704770B504460068E7
:100940000168490702D54168490705D401680907CC
:1009500033D54168090730D5A16DC90604D4A16D0E
:10096000012252021143A165C1680C250905890FB6
:1009700000291AD1216A002917D10168090714D565
:1009800081684A070121002A08DB4268AA434260C5
:10099000A06D0A0290430843A06506E0A06D2022E6
:1009A0001043A065E06D0843E0652046FFF7C0FFF7
:1009B000A069012801D02068056020680168090647
:1009C0000DD5406800060AD5A06D01210904084331
:1009D000A065204600F0FEF82168802008602068AD
:1009E0000168C90613D54168C90610D5616B102589
:1009F000002902D0C168C90707D0E16D0222114366
:100A0000E16505602046FFF794FF2068056070BD32
:100A100070B5040006D0A06D26460025403600289B
:100A200002D006E0012070BDE5653575204600F076
:100A3000D3F8A06DC00603D421688868400705D5A7
:100A4000A06D10210843A0653575EBE7A06DFF226E
:100A50000132904302221043A06588688207920FFA
:100A60005A48012A02D10A68D2072BD103236268AF
:100A70009B079A4205D05B429A4202D05B009A42A1
:100A800009D10A69920092080A6121680A696368BB
:100A90001A430A610CE00A69920092080A618168AF
:100AA0000F229204914381608168626811438160E2
:100AB0002168CA6818239A43CA602168CA68A36873
:100AC0001A43CA608168012252069143816081689D
:100AD000228F52061143816020688168C90004D4C6
:100AE000816801221207114381602068C168384A79
:100AF0001140C1602169E068022923D00021084328
:100B0000216A226B4903520011430843616B084379
:100B1000A16989030843E169C90308432168CA68D8
:100B20001043C860A06A0146FF39C23905D0E16AA6
:100B300008432168CA681043C860606A012101281F
:100B400002D00BE00421DAE7206A002823D0A06D50
:100B500020221043A065E06D0843E065206C012869
:100B600020681FD00169C90703D0016949084900FD
:100B7000016120684169C908C90041612068416973
:100B8000E26B11434161E565A06D80088000401C67
:100B9000A065002070BD2068C26801231B041A43B1
:100BA000C260DBE70269FF239B009A430261206871
:100BB0000269636CE66C1A43A36C33431A43026107
:100BC000206802690A430261D3E700000027014060
:100BD0001902FEFF7047000000B500680E4985B09D
:100BE000884217D10D48416B4215114341630F20D4
:100BF0000090032001900020029005206946000724
:100C000000F0A8F8002211460C2000F0C7F90C20D3
:100C100000F0BAF905B000BD002401400010024008
:100C2000F8B504464069254640350E4608280BD0E5
:100C30002068C068C00709D0A06D20210843A065C6
:100C4000002028750120F8BD082700E00C2700F0DF
:100C50004DF9009011E0701C0FD0002E05D000F06F
:100C600045F90099401AB04207D9A06D0421084304
:100C7000A065002028750320F8BD20680068384270
:100C8000E9D0A06D012149020843A0652068C16830
:100C900009058A0F0C21002A1AD1226A002A17D1CD
:100CA0000268120714D5826853070122002B08DB63
:100CB00043688B434360A06D130298431043A065C3
:100CC00006E0A06D20231843A065E06D1043E065A9
:100CD000A069002801D1206801600020F8BD000053
:100CE00070B50446216800208968490721D425464B
:100CF0004035297D01291CD001212975E16901298F
:100D000004D02046FFF798FD002811D1A16D0A4AB2
:100D10001140FF2201321143A1650021E1652975CF
:100D200022681C21116021688A6804231A438A60A2
:100D300070BD022070BD0000FEF1FFFF31B500F074
:100D4000D5F8044600F0D2F80099001B8842F9D388
:100D500038BD0000F8B500230124A2E027469F40DB
:100D60003A4070D04D68022D01D0122D14D1DD080B
:100D7000AD002D1800952D6A5E07AC46F50E0F26C6
:100D8000AE46AE406546B543AC460E697546AE40CC
:100D900065462E43009D2E624D68012D05D0022D23
:100DA00003D0112D01D0122D16D185680326AC4633
:100DB0005D00AE46AE406546B543AC46CE6875466E
:100DC000AE4065462E43866046680D79BE43ED060B
:100DD000ED0F9D403543456006685F000325BD402B
:100DE000AE46AE430D79B446AE07B60FBE4065467B
:100DF0002E430660C6687546AE438D68BD403543D8
:100E0000C5604D68ED004BD5294D6E6B26436E6372
:100E10009E08284DB6007519AC46AD689E07360F82
:100E20000F27B740BD4305273F07B84201D1002730
:100E300015E0214FB84201D1012710E01F4FB84201
:100E400002D102270BE02BE01D4FB84201D103274E
:100E500005E01C4FB84201D1052700E00627B74046
:100E60002F436546AF60184D2E684F689643FF03C9
:100E700000D516432E606E684F689643BF0300D5B9
:100E800016436E60AE684F689643FF0200D5164366
:100E9000AE60EE684F689643BF0200D51643EE6021
:100EA0005B1C0A681546DD4000D057E7F8BD00001E
:100EB00000100240000001400004005000080050F3
:100EC000000C0050001C0050000401400069084064
:100ED00000D00120704742694A4042617047002AB1
:100EE00001D081617047816270470000014800684D
:100EF000704700008C00002002480168491C016016
:100F0000704700008C00002010B5064801684022A0
:100F100011430160002000F007F800F019F80020EC
:100F200010BD00000020024010B5044607487D2196
:100F3000C9000068FFF7DCF800F0D0FD0022214670
:100F4000501E00F02BF8002010BD00009000002083
:100F500010B50C48416B012211434163816B0204BF
:100F60001143816300221146501F00F017F8002240
:100F70001146901E00F012F800221146501E00F09B
:100F80000DF810BD00100240C106C90E01208840B6
:100F9000014908607047000000E100E010B501F071
:100FA00099F810BD0248016882151143016070472D
:100FB00000700040F8B504460078594D800672D59F
:100FC000574E0027403EB06BC00004D4B06BA9055B
:100FD0000843B063012753480168C90511D401686B
:100FE000821511430160FFF781FF009005E0FFF7D4
:100FF0007DFF0099401A642837D84A480068C00528
:10100000F5D532680321090560680A400140914224
:1010100008D08103890F032904D13168890301D5E0
:101020000120F8BD2A69032109040A4022D00840A2
:1010300090421FD0207880061CD528692A698843F1
:101040000121C9040A432A612A698A432A61286165
:10105000C0050FD5FFF74AFF009008E0FFF746FFF5
:101060000099411A3048814201D90320F8BD28690E
:101070008005F3D561688803800F032805D13268A5
:101080000005824301400A433260286903226168F7
:101090001204114008432861002F04D0B16B0120D5
:1010A00000078143B1632078C00705D0E868A168D4
:1010B000800880000843E8602078800705D5E8684C
:1010C0000C218843E1680843E8602078400706D592
:1010D000E86803218902884321690843E860207891
:1010E000000706D5E86803210903884361690843BE
:1010F000E8602078400606D5E86801218906884323
:10110000E1690843E8602078000606D5E868032115
:1011100089048843A1690843E8600020F8BD000005
:10112000401002400070004088130000F8B50546EA
:1011300053480E460068C007C00FB0420AD250485C
:10114000016849084900314301600068C007C00FC9
:10115000B0426FD128784B4C800705D5E068F0216C
:101160008843A9680843E0602878C00752D06868BF
:10117000022817D0032818D02168012818D0890523
:10118000002957DAE168890889000143E160FFF727
:10119000ADFE69680746022912D003291CD0012937
:1011A00026D033E021688903EAE721688901E7E76F
:1011B0004907E5E7FFF79AFEC11B3348814223D870
:1011C000E0680007800F0228F4D123E0FFF78EFECD
:1011D000C11B2D48814217D8E0680007800F032803
:1011E000F4D117E0FFF782FEC11B274881420BD8DC
:1011F000E0680007800F0128F4D10BE0FFF776FECE
:10120000C11B2148814201D90320F8BDE0680007D5
:10121000800FF3D11A480168C907C90FB1420BD931
:10122000016849084900314301600068C007C00FE8
:10123000B04201D00120F8BD2878400706D5E0680B
:10124000072109028843E9680843E060287800071D
:1012500007D5E0680721C90288432969C900084306
:10126000E06000F01DF8E168084A0906090F515CCA
:10127000C840074908600020FFF756FE0020F8BD6F
:10128000002002400010024088130000303A00089D
:101290009000002001480068704700009000002086
:1012A00010B5184AD1680C20084004280BD0082833
:1012B00010D00C2810D050680004410F0120C0034A
:1012C000491C884010BD1068C00601D50E4810BDED
:1012D0000E4810BD0E4810BD88020E4B000F185C62
:1012E0000902D368890F491CDB0301D5084A05E0D0
:1012F0001268D20601D5044A00E0044A5043FEF7C2
:10130000F7FE10BD0010024000093D000024F4006B
:1013100000127A00403A0008F8B504460078FE4D05
:10132000C0074AD0E8680007800F022807D0E868A5
:101330000007800F032809D1E868C00306D5286894
:1013400080033AD56068002873D036E001206268D7
:101350000004824203D129680143296011E005237A
:1013600001211B0489049A422A6802D10A432A6097
:10137000F1E782432A602A68024000922868884385
:101380002860606800280CD0FFF7B0FD064604E036
:10139000FFF7ACFD801B64287ED828688003F7D552
:1013A0000BE0FFF7A3FD064604E0FFF79FFD801B5F
:1013B0006428F1D828688003F7D42078800741D5C5
:1013C000E8681F270007800F3F02012807D0E86860
:1013D0000007800F032809D1E868C00306D42868F5
:1013E000400717D5E068012823D113E0E068002802
:1013F00017D029680922914301432960FFF776FD40
:10140000064604E0FFF772FD801B0228C4D8286856
:101410004007F7D568682169B84309020843686046
:1014200010E02868400840002860FFF75FFD06468E
:1014300005E095E0FFF75AFD801B0228ACD828682C
:101440004007F7D42078C00672D5E868B34E00078D
:10145000800F0AD0E06900282868B1495AD00843B3
:101460002860FFF743FD074644E02868800502D561
:10147000E069002874D0606A69683140884212D9F6
:1014800000F036FF0028AFD16868616AB0430843B6
:1014900068606868000200E0DCE0218C000A090650
:1014A000084368600FE06968B14301436960686898
:1014B000218C0002000A090608436860606A00F097
:1014C00017FF002890D1606A410B0120C003491C1E
:1014D0008840E96809060A0F9249895CC840924928
:1014E00008600020FFF720FD22E0FFF7FFFCC01B93
:1014F00002288BD828688005F7D56868616AB043F0
:10150000084368606868218C0002000A09060843E5
:1015100068600DE088432860FFF7E8FC064604E0B9
:10152000FFF7E4FC801B022888D828688005F7D4E0
:1015300020787E4E000723D560690028306910D0DE
:10154000012108433061FFF7D1FC074604E0FFF7B3
:10155000CDFCC01B02287DD830698007F7D50FE08D
:1015600001E1400840003061FFF7C0FC074604E09D
:10157000FFF7BCFCC01B02286CD830698007F7D489
:101580002078400760D5A86B0027C00005D4A86B61
:10159000012109070843A863012765480168C905B7
:1015A00011D40168821511430160FFF79FFC009080
:1015B00005E0FFF79BFC0099401A64284AD85C4874
:1015C0000068C005F5D55648A268824203D131694A
:1015D0000143316111E001218902002A07D005236E
:1015E0001B029A4203D132690A433261EFE7326942
:1015F00082433261306988433061A06800280ED090
:10160000FFF774FC009006E0FFF770FC0099411AA8
:10161000484881421ED830698005F5D50DE0FFF7B6
:1016200065FC009006E0FFF761FC0099411A414813
:1016300081420FD830698005F5D4002F04D0A96B02
:10164000012000078143A9632078800630D53A48FD
:10165000421400E080E0A169002916D0AB680121A6
:101660000B43AB606B6B0B436B63016A114301620D
:10167000FFF73CFC064604E0FFF738FC801B02281D
:101680006AD8A8688007F7D512E0A9684908490018
:10169000A960016A91430162FFF728FC064604E055
:1016A000FFF724FC801B022856D8A8688007F7D4CF
:1016B000A06A002855D0E9680907890F032952D08C
:1016C000012636060228286805D0B0432860FFF7B7
:1016D0000DFC044642E0B0432860FFF707FC0746D4
:1016E00004E0FFF703FCC01B022835D828688001FE
:1016F000F7D4216BE06AEA680843616BFD231B04A1
:101700009A4311430843E860286830432860FFF794
:10171000EDFB044617E000000010024000E000006E
:1017200000010000303A0008900000204010024004
:10173000007000408813000000000140FFF7D6FB56
:10174000001B022808D828688001F7D509E0FFF7B8
:10175000CDFB001B022801D90320F8BD28688001B9
:10176000F5D40020F8BD0120F8BD10B500680B4687
:101770004068C021C94301400002000ECC04D8706B
:10178000E40E5C708C06A40E0904490F9C7019705D
:10179000002A0AD100F0E4FDD870587800F0E0FD8E
:1017A0005870987800F0DCFD9870002010BD0000A3
:1017B00030B50B460168896A5960016809694904B6
:1017C000490C9960006804680F482146014088026E
:1017D0004D04800E18706D0E49065D70490E9970AB
:1017E0006102490E40242140D970002A0AD100F03C
:1017F000B7FD1870587800F0B3FD5870987800F075
:10180000AFFD9870002030BD7F7F7F0070B5040071
:1018100005D0254620356878002802D006E0012052
:1018200070BD00202870204600F042F80220687049
:101830002168CA204862216853204862204600F08F
:10184000A2FDFF210028206803D0416204206870B7
:10185000E5E78268154B1A408260226890686368E9
:10186000A669184323693343184390602268E068EF
:1018700010612068026923891B041A4302612068F1
:10188000C26880239A43C2602068C26C92089200AA
:10189000C264E269606902432068C36C1A43C2648F
:1018A0002068416201206870002070BDBFFF8FFF7B
:1018B00000680549884205D1044801690122920463
:1018C00011430161704700000028004040100240B1
:1018D000F8B505460446203528780B46012815D072
:1018E00001202870022068705878002A10D000F07B
:1018F00037FD987800F034FDD8789E7800040643D0
:101900005878197800024903084316E00220F8BD10
:10191000C10603D5EF2108400A305870D87800F08E
:1019200027FD0604587800F023FD0002064398784E
:1019300000F01EFD06431878400306432168CA20C4
:101940004862216853204862204600F01CFD0027B1
:10195000002811D110480640206846602068C16800
:1019600080229143C1602068806880060CD42046A4
:1019700000F08CF8002807D02168FF20486204207E
:1019800068702F700120F8BD2168FF204862012097
:1019900068702F700020F8BD3FFFFF00F8B50646C5
:1019A0000446203630780D4601280ED001203070D4
:1019B00002207070206800278068002A07D0400647
:1019C0001AD5287800F0CCFC17E00220F8BD4006BC
:1019D00000D4EF70287800F0CBFC0204687800F0A7
:1019E000C7FC00020243A87800F0C2FC0243E8787A
:1019F0000004024300920BE0EF702978A8780904F4
:101A000008436978EA7809021204114308430090F8
:101A10002168CA204862216853204862204600F0AD
:101A2000B2FC00281FD118490098084021680860BE
:101A30002068816801229204914381602969E868E5
:101A4000084321688A68104388602068C168802242
:101A50009143C1602068806880060CD4204600F065
:101A600015F8002807D02168FF2048620420707014
:101A700037700120F8BD2168FF2048620120707096
:101A800037700020F8BD00007F7F7F0070B50446EE
:101A90000068C168A0229143C160FFF727FA7D2644
:101AA0000546F60006E0FFF721FA401BB04201D9D7
:101AB000032070BD2068C0688006F4D5002070BD8A
:101AC000042204490428086902D090430861704741
:101AD0001043FBE700E000E070470000094910B543
:101AE000401E884201D9012010BD074C60610321CE
:101AF000081F00F0EFFA0020A061072020610020FD
:101B000010BD0000FFFFFF0000E000E010B5FFF790
:101B1000E3FF10BD70B502462032137D012B1BD0B0
:101B20000123137502245475046865687026B54353
:101B30006560046865680E68354365600468A5687B
:101B40008026B543A5600068846849680C438460BA
:101B500053750020107570BD022070BD70B5040073
:101B600005D025462035687D002802D006E00120FA
:101B700070BD00202875204600F00AF80220687524
:101B8000211D206800F006FD01206875002070BD51
:101B900000680449884204D10348416B2022114364
:101BA00041637047001401400010024002220146C8
:101BB00020314A7502681368012003431360487599
:101BC00000207047F8B5054604462035287D0128D9
:101BD00017D001272F750220687522689068772634
:101BE000FF23B0431B02984390600868502837D009
:101BF0000EDC202857D006DC00284ED0102840D11B
:101C00004EE00220F8BD302850D0402839D13CE0C9
:101C100060282DD0702817D001221203801A0ED010
:101C200090422ED1CB684A688968206800F0E5FCB4
:101C300020688168012292031143816021E02068BD
:101C40008168C908C900F8E7CB684A6889682068D4
:101C500000F0D3FC21688868B0433043886010E00E
:101C6000CA684968206800F042FD5021206806E0FB
:101C7000CA684968206800F04BFD6021206800F0C8
:101C8000C7FC6F7500202875F8BDCA6849682068D0
:101C900000F02DFD40212068F1E700212068EEE7EB
:101CA00010212068EBE720212068E8E73021206838
:101CB000E5E7000000B50068094985B088420CD10D
:101CC0004020009002200190002002900390052007
:101CD000049069460007FFF73DF805B000BD00001D
:101CE00000140140F8B5064604462036307D0D4606
:101CF00001280DD001203075022070750427002ABC
:101D000008D0042A16D0082A2AD00C2A4DD137E050
:101D10000220F8BD206800F083FC20688169082259
:101D20001143816120688169B943816120688169BB
:101D3000EA6812E0206800F08BFC206882690121CB
:101D4000C9020A438261206881690122920291439B
:101D5000816120688169EA6812021143816124E08F
:101D6000206800F08EFC2068C26908210A43C26125
:101D70002068C169B943C1612068C169EA6812E09D
:101D8000206800F099FC2068C1690122D202114349
:101D9000C1612068C269012189028A43C261206849
:101DA000C169EA6812021143C16101207075002007
:101DB0003075F8BD70B5040005D025462035687D26
:101DC000002802D006E0012070BD002028752046C2
:101DD00000F00AF802206875211D206800F0DAFB87
:101DE00001206875002070BD704710B5044600687A
:101DF000012200F0F7FB2068016801221143016015
:101E0000002010BDFEE700001CB52C482A490160E7
:101E10000021092292040164426081600124C160B2
:101E20000461016207224462C263FF22C162C232BE
:101E30008262016341638161042281634261C16105
:101E4000FEF7E6FD002803D04D211DA000F073FC35
:101E5000012000030190694600941848FEF71EFD1A
:101E6000002803D0562116A000F065FC1848009009
:101E700069461248FEF712FD002803D05E2110A02B
:101E800000F059FC1348009069460C48FEF706FD27
:101E9000002803D066210AA000F04DFC0E480090F7
:101EA00069460648FEF7FAFC002803D06E2104A01C
:101EB00000F041FC1CBD000000240140C8000020CF
:101EC0002E2E2F5372632F6164632E630000000077
:101ED00002000004040000080800000CF0B52748C8
:101EE00087B0C16A04252943C162C16A29400591AE
:101EF000C26A80210A43C262C26A0A400592C16A6C
:101F000001263143C162C16A31400591C26A022192
:101F10000A43C262C06A1A4C08400590002221465A
:101F20001848FEF7DCFF184F002203213846FEF761
:101F3000D6FF009400240196029469461148039448
:101F4000FEF708FF0320009002946946019603946F
:101F50003846FEF7FFFE0194694638460095029424
:101F6000FEF7F8FE072040020090019469460294B3
:101F70000448FEF7EFFE07B0F0BD0000001002407D
:101F8000FF010000000800500004005010B51D497A
:101F90001D4886B0002412C07F2101608460C460A7
:101FA0000461FF21446141600838FFF72FFC0028DD
:101FB00003D0432115A000F0BEFB684604704470B6
:101FC00084700394012269460F480494FFF7E6FCED
:101FD000002803D04F210DA000F0ADFB0120694681
:101FE000087548758875CC75024605A90648FFF73F
:101FF0006FFC002803D0592104A000F09CFB06B020
:1020000010BD000000280040280100202E2E2F5374
:1020100072632F7274632E630000000010B52648AF
:102020008AB024490160002424498460416063210E
:102030000461C160FFF792FD002803D03F2120A07A
:1020400000F079FB01200003049004A91A48FFF76F
:10205000B9FD002803D0452119A000F06CFB1648FB
:10206000FFF7A8FE002803D04A2115A000F063FB6B
:10207000089408A910480994FFF74CFD002803D0E4
:1020800051210FA000F057FB7020009001940294A2
:102090000022694603940848FFF724FE002803D075
:1020A0005A2107A000F047FB0348FFF703FE0AB0E0
:1020B00010BD0000001401404C0100207F0C000006
:1020C0002E2E2F5372632F74696D2E630000000053
:1020D000704700008307FF22DB0E9A408907090E34
:1020E000994000280BDA0007000F083883080848D9
:1020F0009B001818C36993430B43C361704783085F
:1021000004489B001B1818689043084318607047E8
:1021100000ED00E000E400E010B50446202000F0EF
:102120004FF9204600F04CF910BD10B50446DA20F6
:1021300000F046F90220204300F042F910BD10B52E
:10214000C021084300F03CF910BD10B504468120C1
:1021500000F036F9204600F033F910BD10B5AE217D
:10216000084300F02DF910BD70B506460220FFF7B8
:10217000D3FF0024204600F0B4F8002000F0A6F8B9
:102180000025304600F04CF96D1CEDB2802DF8D3DF
:10219000641CE4B2082CEDD370BD000010B5174CE0
:1021A000002204212046FEF79AFE0021FF239133EE
:1021B0000022521C9A42FCDB491CC9B2C829F7D341
:1021C000012204212046FEF78AFE0020FFF7C6FF09
:1021D000012000F015F80820FFF7B1FF1020FFF7ED
:1021E000A4FFCF20FFF7B1FF0020FFF7BDFF0120C4
:1021F000FFF7B4FF0220FFF78FFF10BD000800506B
:1022000010B5A021084300F0DBF810BDF8B50B4F66
:102210000024204600F065F8002000F057F8002563
:10222000E6017019385C00F0FBF86D1CEDB2802DF2
:10223000F7D3641CE4B2082CEBD3F8BD493A00088C
:1022400070B5203800248100064E45182819305CEE
:1022500000F0E6F8641CE4B2052CF7D3002000F08F
:10226000DFF870BD493E0008F8B50E46002400F0C6
:1022700038F8002000F02AF8134F18E00025802CD1
:1022800009D230782038810040184019385C00F0BD
:10229000C7F8641CE4B26D1CEDB2052DEFD3802CA1
:1022A00004D2002000F0BCF8641CE4B2761C307844
:1022B0000028E3D104E0002000F0B2F8641CE4B28E
:1022C000802CF8D3F8BD0000493E000810B5841CEE
:1022D0002007000F00F074F82009103000F070F8AB
:1022E00010BD10B5B021084300F06AF810BD70476A
:1022F00070B517490023CA681206120F18D18A6BED
:10230000154CD500134A02D51268224009E08E6BA5
:1023100001252D072E438E6312688E6B2240AE433B
:102320008E63A24204D103218903884200D1012394
:102330000A48016849084900194301600068C0075C
:10234000C00F984201D0012070BD002070BD000078
:102350000010024000700040001800000020024001
:1023600001090A2200075143000F4018C0B270470C
:10237000002102E00A38C0B2491C0A28FAD2090733
:10238000090E0843704770B504460068C1684906E5
:1023900013D40021C943C160FEF7A8FD7D26054680
:1023A000F60006E0FEF7A2FD401BB04201D9032073
:1023B00070BD2068C0684006F4D5002070BD0000E4
:1023C00070B5164E0546002201213046FEF787FD06
:1023D000002202213046FEF782FD00240022102157
:1023E0003046FEF77CFD280601D5012200E00022E0
:1023F00008213046FEF773FD6806050E0122102104
:102400003046FEF76CFD641CE4B2082CE6D30122D2
:1024100011463046FEF763FD70BD00000008005015
:1024200070B5164E0546002201213046FEF757FDD5
:10243000012202213046FEF752FD00240022102125
:102440003046FEF74CFD280601D5012200E00022AF
:1024500008213046FEF743FD6806050E01221021D3
:102460003046FEF73CFD641CE4B2082CE6D30122A2
:1024700011463046FEF733FD70BD000000080050E5
:10248000704710B5FEF738FDFFF740FB10BD0000A8
:1024900010B529489CB001680324E402A143C2148A
:1024A00089180160FEF77EFD24480169214301611E
:1024B00001242404072000902012029001200390A0
:1024C0001020049002200A90032080040C90A001A8
:1024D00001940D900B946846FEF71EFF002800D073
:1024E000FEE70F200E9003200F9000201090119017
:1024F000129001210EA8FEF719FE002800D0FEE779
:1025000020201390149413A8FEF754FD002800D047
:10251000FEE7FEF7BFFE7D21C900FDF7E9FDFFF7ED
:10252000DDFA0420FFF7CCFA00221146501EFEF718
:1025300035FD1CB010BD000000700040401002408E
:1025400010480168821511430160C1680E4A1140AC
:10255000C16001680D4A1140016081684908490065
:10256000816001680122920491430160C168FD22EB
:1025700012049143C160002101610549C0038860D4
:1025800070470000001002400C40FF88F6FFF6FE86
:1025900000ED00E070B5026801239B070F4C104D61
:1025A000984203D0A04201D0A84203D17026B24382
:1025B0004E683243984203D0A04201D0A84204D1D1
:1025C00003231B029A43CB681A4302608A68C262E3
:1025D000096881620121416170BD0000000801406D
:1025E0000014014010B50123046A8B409C4304622F
:1025F000036A8A401343036210BD30B58468FF2527
:102600002D021B021343AC430B432343836030BDB5
:10261000826870239A430A4307210A438260704705
:1026200030B5026A520852000262026A4568836944
:102630007024A3439C080B68A40023430224A243F4
:102640008C6845601443836149684163046230BD0E
:1026500030B5026A10239A430262036A45688269B0
:1026600073242402A2430C682402144320229343BF
:102670008A68456012011A43846149688163026275
:1026800030BD30B5026AFF2301339A430262026A09
:102690004568C3697024A3439C080B68A4002343C6
:1026A00001246402A2438C68456024021443C36180
:1026B0004968C163046230BD30B5026A01231B035F
:1026C0009A430262036A4568C26973242402A243E2
:1026D0000C68240214430122520393438A68456024
:1026E00012031A43C46149680164026230BD30B507
:1026F000036A046A6408640004628469F025AC43D8
:10270000120122430A24A3430B438261036230BDBA
:1027100030B5036A1024A34303628469036A0F255A
:102720002D031203AC432243A024A3430901194300
:102730008261016230BDFEE70FB410B504A9074BFA
:1027400002AA039800F0ECF8044602A9002000F069
:1027500083FC204610BC08BC04B018475930000860
:102760002021020C01D010211046020A01D010468F
:102770000839020901D01046091F820801D010460D
:10278000891E420801D0881E7047081A704702E06F
:1027900008C8121F08C1002AFAD1704770470020EC
:1027A00001E001C1121F002AFBD17047F0B51FB430
:1027B00086B00998089A030D0021024314D05148AD
:1027C000514A1818504305141198012810981AD02E
:1027D000281A401C00264D4F4D4900960191049047
:1027E000002812DA444211E01198012449A301287B
:1027F00001D11098C1430698119A84600360C260A9
:1028000041600BB0F0BD4042E4E7044621050020E2
:102810003F4A001C51410391029012E0E00707D0AB
:1028200032463B4601990098FDF732FE0191009037
:1028300032463B4610461946FDF72AFE06460F462D
:102840006410002CEAD10498039B0028029A09998D
:10285000089806DAFDF71CFE019B009AFDF718FEAA
:1028600005E0FDF77DFE019B009AFDF779FE044629
:102870000E460022284BFDF70BFF03D80020C04373
:10288000014607E00022254B20463146FDF74EFD6C
:10289000FDF7DEFE102409E0002C0ADB0A220023EB
:1028A000FDF7D2FC079B30321A55641E02460A43DC
:1028B000F2D11122641C079B121B1C19119B012BC6
:1028C00003D0012308430ED10AE0084304D01120AD
:1028D00010900020119077E71098151A6D1E0BE0EC
:1028E0001098824202DD00236D1C03E0824201DA6F
:1028F00000236D1E002BEED0069811998260C160F6
:1029000030C07EE701FCFFFF104D000000001440C6
:102910000000F03F300000000000F0430000E03F06
:10292000FFB597B00646002518E2252877D1002488
:102930002746FD49049400E00443761C32780120C8
:10294000203A90400842F7D130782A280ED002224F
:10295000307801463039092916D804990A23594399
:10296000303940181443761C0490F1E7189802C8D7
:1029700004911890002904DA0120400304434842DE
:10298000049002200443761C30782E2814D10420B1
:1029900004437078761C2A2809D11898761C80C8C0
:1029A000189009E00A214F43303FC719761C307850
:1029B000014630390929F5D930786C2810D006DC69
:1029C0004C281AD068280ED06A2817D104E0742841
:1029D00013D07A2812D110E00120400504430CE006
:1029E0000121090501E0032109050C4371788142A9
:1029F00003D1012000052418761C761C3078119034
:102A000066280BD013DC58287DD009DC00287BD049
:102A10004528F6D04628F4D047281AD1A5E118E079
:102A2000632835D0642870D0652812D19DE17028C4
:102A30006CD008DC6728F1D069287BD06E280DD0D7
:102A40006F2806D1BAE073282ED0752871D0782867
:102A500059D01A9A199990476D1C7EE16002400F77
:102A6000022809D003280DD00428189801680DD039
:102A70000D60001D189070E11898EA1701680D604C
:102A80004A60F6E7189801680D80F2E70D70F0E7EC
:102A900018986A4601781172001D18900020507233
:102AA00002A80090012005E0189802C818900020A4
:102AB0000091C04361070DD5002101E00199491C37
:102AC0000191B94212DA8142F8DB009A515C002987
:102AD000F4D10BE0002101E00199491C01918142F0
:102AE000FADB019A0099895C0029F5D101990498D3
:102AF0001A9B471A21463846199A00F097FA01990D
:102B0000401945180BE04FE02CE113E04EE000982F
:102B100000990078491C00911A9A199990470198D8
:102B2000401E0190401CF2D1214638461A9B199A4A
:102B300010E137E00A200021009001916002410F6E
:102B4000022907D0189A01CA1892C217944603297D
:102B500008D00AE01898C01DC108C90005C918911D
:102B6000944607E000B2C2179446042902D140B24D
:102B7000C1178C4600226146944506DA0A460021B8
:102B8000404291418C462D2102E0210504D52B21A4
:102B90006A461173012103E0E10701D02021F7E724
:102BA000029155E00A200AE0102008E01020009071
:102BB0000021042004430191082703E0082000219C
:102BC000019100906002410F022907D0189A01CAB2
:102BD000189200229446032908D008E01898C01DD6
:102BE000C108C90005C91891944603E080B20429C0
:102BF00000D1C0B200210291210729D51199702975
:102C000006D0009A1021019B4A401A4305D00EE0DD
:102C100040216A461173012108E06146014306D054
:102C200030216A4611731199517302210291009A61
:102C30000821019B4A401A430AD16146014301D150
:102C4000610705D530216A46117301217F1E02916B
:102C50001199582904D035A10E910DA90D910DE0BF
:102C600037A1F9E76146019B009AFDF7EDFA0E9B4B
:102C70008C469B5C0D9A521E0D9213706146014367
:102C8000F0D10D9805A9081A20300190600703D5EE
:102C900001200004844300E001270198874201DD00
:102CA000381A00E000200199009041180298091894
:102CB0000498401A0490E00306D421461A9B199AFE
:102CC000049800F0B3F94519002706E003A81A9A02
:102CD000C05D199990476D1C7F1C02988742F5DBF7
:102CE000E0030CD521461A9B199A049800F09EF92E
:102CF000451904E01A9A3020199990476D1C0099E3
:102D0000481E00900029F5DC08E00D980D99007828
:102D1000491C0D911A9A199990476D1C0199481EEA
:102D200001900029F1DC63E10928010030313233E0
:102D300034353637383961626364656600000000F7
:102D400030313233343536373839414243444546E1
:102D50000000000000F05AF94519761C3078002870
:102D600000D0E2E528461BB0F0BD600700D406277E
:102D70001898C01DC108C90048680A680831C30F07
:102D8000DB071891190001D09CA108E0210501D5AD
:102D90009BA104E0E10701D09AA100E09AA14300C1
:102DA00011985B08109165280CD006DC452809D0E5
:102DB00046281DD0472841D141E0662818D0672811
:102DC0003CD13CE00021112F01DB112000E0781CF8
:102DD0000191009008A911A8FFF7E8FC139905914B
:102DE0000021119A15927F1C12980197009150E0D2
:102DF0000120C00703900120019008A9009711A8A5
:102E0000FFF7D4FC139A149905920022119B0092AB
:102E100012981593059A0192002901D0104602E0FC
:102E2000791C40180190381A01D5019804E04042FD
:102E3000401E0090781C0190C01B029043E0012FBF
:102E400000DA01270021112F01DD112000E03846B2
:102E50000191009008A911A8FFF7A8FC139905910A
:102E6000119A0021129815920091019721070CD414
:102E70000599B94201DB019900E00191012904DDC6
:102E8000159A491E515C302906D0B84201DA011D5D
:102E900005DA0121029115E00199491EEDE70028AC
:102EA00005DC0099411800910199091A03E0019A83
:102EB000411C914200DD01910099401A401C029092
:102EC0000120C0070390200706D40299019881428F
:102ED00002DB0020C043029000206946C87707AF9C
:102EE000012103980337C907884224D0022011909A
:102EF0002B201290039800280CDA404203902D20DA
:102F0000129007E00A210398FDF7F2F830317F1E96
:102F1000039039701199481E11900029F2DC039832
:102F20000028EFD1791E12980870307820210840CF
:102F30004530BF1E387006A8C01BC01D03901098F6
:102F40000078002800D00120019941180298C0178C
:102F50000918039809180498401A401E0490E003C9
:102F600006D421461A9B199A049800F05FF8451977
:102F700010980078002803D01A9A199990476D1C70
:102F8000E00324D521461A9B199A049800F04EF8C4
:102F900045191CE00098002807DB00990598884235
:102FA00003DD1598405C199901E0199930201A9AAF
:102FB000904700986D1C401C00900298401E0290A3
:102FC000002804D11A9A2E20199990476D1C019956
:102FD000481E01900029DDDC05E038781A9A7F1C34
:102FE000199990476D1C0399481E03900029F4DC41
:102FF00021461A9B199A0498ACE600002D000000A7
:103000002B0000002000000000000000F8B504467E
:1030100000251E461746880404D405E039462020C2
:10302000B0476D1C641EF9D52846F8BDFFB50446AF
:10303000002581B01E46C80301D5302700E02027B7
:10304000880404D505E038460399B0476D1C641E1A
:10305000F9D5284605B0F0BD0A68531C0B60107006
:103060007047000070B5094D00240948FDF738FE8F
:103070000A210748FDF7D4FD0548FDF75BFC610018
:10308000641CE4B26852042CEFD370BD1E00002013
:10309000C800002010B508480078002806D0012894
:1030A00007D0022801D100F09DFA10BD00F006F80B
:1030B00010BD00F00DF910BD00000020F8B5504C17
:1030C000504E6178207825462835814213D06070B3
:1030D00080204D49C0434861002777614B484763D2
:1030E0003846FFF7FEF80020FFF7F0F8FDF7FEFE88
:1030F000286027721BE0207A002818D0404900225F
:103100001A314348FEF731FB002242494048FEF79E
:103110004FFB404881780091437802783EA11430FB
:10312000FFF70AFB3B4902201431FFF79DF8FDF73A
:10313000DDFE2968401AC8285FD301202072FFF7FE
:1031400091FF3CA10020FFF78FF840A10120FFF77D
:103150008BF82B4C43491E342088434F4843394653
:10316000FCF7C6FF02462B4840A11430FFF7E4FAF3
:10317000284903201431FFF777F86088394948431C
:103180003946FCF7B5FF024622483CA11430FFF750
:10319000D3FA204904201431FFF766F8A08831499A
:1031A00048433946FCF7A4FF02461A4837A11430B9
:1031B000FFF7C2FA174905201431FFF755F8E088E8
:1031C000284948433946FCF793FF0246114833A18A
:1031D0001430FFF7B1FA0F4906201431FFF744F815
:1031E00004213046FDF772FE002807D02FA10720EA
:1031F000FFF73AF8FDF77AFE2860F8BD30A1F6E750
:10320000000000200004005000080050001401409D
:10321000280100209400002053797374656D2052BA
:1032200054433A20253032643A253032643A25300E
:10323000326400004E5453435F3438543A20456C96
:10324000656374726F6E696373000000436F6D7025
:10325000657469746F723A203030303030303030FD
:1032600032000000E40C0000FF0F000041494E3026
:103270003A20253034645B6D565D000041494E3183
:103280003A20253034645B6D565D000041494E3272
:103290003A20253034645B6D565D000041494E3361
:1032A0003A20253034645B6D565D000052504D3A33
:1032B00020204E4F545F424C414E4B45440000008D
:1032C00052504D3A20202020424C414E4B45440064
:1032D000F8B5914D914C697828782E46002728360C
:1032E000814219D0687040218D48C94341618D48A1
:1032F000476167630020FEF7F4FF0020FEF7E6FF5A
:10330000FDF7F4FD7060306087A10620FEF7ACFF8A
:1033100088A10720FEF7A8FFFDF7E8FD3168401AF5
:10332000C8287CD3FFF79EFE85A10020FEF79CFFF6
:103330007948894A1E304188914202D9606B401D0C
:103340001CE07D20C000814205D2636B052B02D3B7
:10335000606B401F12E0704B1E33814201D26763E5
:103360000DE01988914202D9606B401C06E0814251
:1033700005D2606B002802D0606B401E6063606BFA
:10338000642801D964206063626B74A17748FFF7F9
:10339000D3F976490120FEF767FFEA8A3C204243D1
:1033A00073A17248FFF7C8F970490220FEF75CFF6D
:1033B000616BE88A3C225043FCF79AFE82B2606B54
:1033C000002800D100226EA16848FFF7B5F96749CF
:1033D0000320FEF749FF504C6F491E34A088484334
:1033E0006E49FCF785FE02466DA16048FFF7A4F91F
:1033F0005E490420FEF738FFE088FCF70AFF6C49BD
:10340000FCF78CFE6B49FCF7C6FE6B49FCF7C3FE6C
:10341000FCF706FF02460B4668A1544800E051E065
:10342000FFF78AF951490520FEF71EFF01218902A5
:103430003B48FDF74BFD0A3C002814D120780028BA
:1034400011D001213748FDF746FD01213548FDF730
:103450003DFD002801D05DA100E033A10620FEF76C
:1034600003FF277007E0012189022D48FDF72EFD9B
:10347000012800D12070012149022948FDF726FDCD
:10348000002814D16078002811D002212548FDF7CA
:1034900022FD02212348FDF719FD002801D04EA18D
:1034A00000E024A10720FEF7DFFE677007E001219E
:1034B00049021B48FDF70AFD012800D16070FDF7A5
:1034C00015FD3060FDF712FD7168401AFF21F531DE
:1034D000884219D22879002808D004211148FDF724
:1034E000F5FC00280BD02879002807D104210D48CD
:1034F000FDF7ECFC002801D001202871F8BD688997
:10350000401C68812F71F8BDFDF7F0FC7060688980
:10351000E8826F81F8BD0000000000200014014027
:10352000000800500004005052656C6179313A2067
:103530004F46460052656C6179323A204F4646004C
:10354000506F7765722047656E45726174696F6E62
:1035500020496E666F000000B80B000050574D31D7
:103560003A2025336420205B25255D00A80000203B
:1035700052504D3A2020253464205B52504D5D005E
:10358000526174653A20253464205B52504D2F50AF
:10359000574D315D00000000E40C0000FF0F0000FB
:1035A000566F75743A20253464205B6D565D0000BB
:1035B00000404E4500F07F4500003041496F757472
:1035C0003A2025352E31665B6D415D0052656C6198
:1035D00079313A204F4E000052656C6179323A20C1
:1035E0004F4E0000F8B5CB4D00266978287881420F
:1035F00013D068702020C849C0434861C74846615D
:103600000020FEF76EFE0020FEF760FEFDF76EFC68
:10361000294628310860FEF7F9FDBE4900242246FC
:103620001A31BF48FEF7A1F80022BE49BC48FEF798
:10363000BFF80020FEF755FE0020FEF747FEB94810
:103640008178009143780278B7A11430FFF774F8BD
:10365000B44F143702E0641CFEF7F2FD385D002819
:10366000F9D1FDF743FCAB4928310968401AC82855
:1036700072D3FFF7F7FC0120FEF733FE0020FEF7C0
:1036800025FEA448AC4A1E3001880024012791423F
:103690000ED903465B8893420AD99E483030001900
:1036A000007D641CFEF7CCFD0A2CF6DB022014E042
:1036B000A14B7D22D200994211D9964B1E335B88D3
:1036C00093420CD29348303000192030007A641CA9
:1036D000FEF7B6FD0A2CF5DB0420E87080E07D22C1
:1036E000D200914211D28B4A1E325388924A9342A1
:1036F0000BD98848303000194030007C641CFEF73C
:103700009FFD0A2CF5DB0820E7E77D22D2009142DD
:1037100012D2804A1E3253887D22D20093420BD2AD
:103720007C48303000192030007F641CFEF788FD93
:103730000A2CF5DB0620D0E7764A7F4B1E329942F1
:103740000BD9744830300019807F641CFEF778FD77
:103750000A2CF6DB0320C0E7DAE05288764B9A4267
:103760000AD96C4830300019807A641CFEF768FD75
:103770000A2CF6DBEF7033E07D23DB0099420BD29D
:1037800064483030001940308079641CFEF758FDE1
:103790000A2CF5DB0720A0E79A420BD25D483030B7
:1037A00000192030807C641CFEF74AFD0A2CF5DBF2
:1037B000052092E79A4210D999420ED95E4B994260
:1037C0000BD29A4209D253483030005D641CFEF798
:1037D00037FD0A2CF7DBEE705AE0E878002857D066
:1037E000298AE878814251D028826979002909D054
:1037F000A8812883411C6E71E981082900D9EE81D6
:10380000411E2983E98988420AD1AA78002A12D167
:10381000491C89B2AF70E98108290CD9EE810AE010
:10382000A978002907D1298B884204D10222AA70E5
:10383000491E2983E981698A091889B26982242984
:1038400000D3AF71E989884202D1AA78012A05D054
:10385000884222D1AA78022A0BD01EE0491C8AB2E3
:10386000EA81A989884200D0EF71082A07D9EE8140
:1038700005E0491EE981A989884200D0EF7188429C
:103880000BD1E879002808D0AF7106E0002804D1F8
:103890006F71AE70AE71EE716E820220FEF721FD87
:1038A0000020FEF713FDA878002804D001280DD0D1
:1038B000022819D027E04E20FEF7C2FC4F20FEF769
:1038C000BFFC4E20FEF7BCFC45201AE0A87900287A
:1038D00019D02020FEF7B4FC4320FEF7B1FC57209E
:1038E000FEF7AEFC20200CE0A87900280BD02020A9
:1038F000FEF7A6FC4320FEF7A3FC4320FEF7A0FC46
:103900005720FEF79DFCFDF7F1FA024928310860C7
:10391000F8BD000000000020000800500004005026
:103920002801002094000020253032643A253032EE
:10393000643A253032640000B80B0000FDF7E4FA69
:10394000FEF7A6FDFEF7CAFAFEF768FBFEF71EFBC0
:10395000FEF75AFA2148FEF729F900211F48FEF721
:1039600044FA6420FDF7EAF901221D4C16023146A3
:103970002046FDF7B4FA012280212046FDF7AFFA78
:10398000012240212046FDF7AAFA012220212046EB
:10399000FDF7A5FA012210212046FDF7A0FA114DEE
:1039A000002202212846FDF79AFA0022012128462A
:1039B000FDF795FAFEF7F2FB7D20C000FDF7BEF99A
:1039C00000F012F8FFF766FB04212846FDF77EFAA7
:1039D000024631462046FDF782FAF1E74C0100200D
:1039E000000800500004005070B501250E4CED0297
:1039F00029462046FDF76AFA002814D10B4A1078B0
:103A0000401CC0B21070032804D30020107001E0E5
:103A1000FFF740FB29462046FDF758FA0028F7D06B
:103A20002820FDF78BF970BD000800500000002031
:103A3000000000000000000001020304060708095E
:103A4000030406080C1018203000000000000000DD
:103A50000000000000000000000000000000000066
:103A60000000000000000000000000000000000056
:103A70000000000000000000000000000000000046
:103A80000000000000000000000000000000000036
:103A900000000000000000383C7FFEFCF8F0E080F1
:103AA00000000040C0C0E0F0E0E080000000000046
:103AB0000000000000000000000000000000000006
:103AC00000000000000000000000000000000000F6
:103AD00000000000000000000000000000000000E6
:103AE00000000000000000000000000000000000D6
:103AF00000000000000000000000000000000000C6
:103B000000000000000000000000000000000000B5
:103B10000080C0C08000000000000001030F3F7F54
:103B2000BF7CF0C0800000010FFFFFFFF8C0000065
:103B30000000000000000000000000000000000085
:103B40000000000000000000000000000000000075
:103B50000000000000000000000000000000000065
:103B60000000000000000000000000000000000055
:103B70000000000000000000000000000000000045
:103B80000000000000000000000000000000000233
:103B900003030307070F0F1E147068E4840E0E0F53
:103BA0001FDFDEBE3EBC7C78F8F0E7EFDFBF0E0023
:103BB0000000000000000000000000000000000005
:103BC00000000000000000000000000000000000F5
:103BD00000000000000000000000000000000000E5
:103BE00000000000000000000000000000000000D5
:103BF00000000000000000000000000000000000C5
:103C000000000000000000000000000000000000B4
:103C10000000080C1C3870E0C080400619671C606A
:103C200000037FFF00FF00C0209D4D3B877F1F0EDC
:103C3000FC30000000000000000000000000000058
:103C40000000000000000000000000000000000074
:103C50000000000000000000000000000000000064
:103C60000000000000000000000000000000000054
:103C70000000000000000000000000000000F00054
:103C800000000000000000F0000000000000000044
:103C900000000000E0F000000001010000003030F2
:103CA0000000E0F10000E1F002010001000002016B
:103CB0000000000000000000000000000000000004
:103CC00000000000000000000000000000000000F4
:103CD00000000000000000000000000000000000E4
:103CE0001EE00000E01E1EE00000E01E0000F804E0
:103CF0000202020204F80000FE0804020200FF00B3
:103D000000F80402020204FF000000183C322222E4
:103D100062C40000FFFF2070D88C06020000FEFE87
:103D20000000FFFF0000FFFF0000183C322222626B
:103D3000C4000000000000000000000000000000BF
:103D40000000000000000000000000000000000073
:103D50000000000000000000000000000000000063
:103D6000F800834320100800030380808080000156
:103D70000282828281808000030080808080030034
:103D800000800182828201030000000123120A0ADE
:103D90000B11E0000303E01008090B13E20003031A
:103DA0002010FB030000F30B0808090BF2020203CA
:103DB0000100000000000000000000000000000002
:103DC00000000000000000000000000000000000F3
:103DD00000000000000000000000000000000000E3
:103DE0007F030408102040000031484444247F0031
:103DF00000605048444241000031484444247F0060
:103E0000007F010000007F00000000006050484477
:103E10004241400000001F20404040201F000000A1
:103E200000007F0000000041414141211E000000D0
:103E30000000000000000000000000000000000082
:103E40000000000000000000000000000000000072
:103E50005F00000007000700147F147F14242A7FEE
:103E60002A122313086462364956205000080703BB
:103E700000001C2241000041221C002A1C7F1C2A39
:103E800008083E080800007030000808080808000C
:103E90000060600020100804023E5149453E004287
:103EA0007F400042615149462141454B311814126F
:103EB0007F1027454545397C4A4949300101710D3C
:103EC000033649494936064949291E0000140000B5
:103ED000004034000000081422411414141414008B
:103EE0004122140802015909063E415D594E7C12D7
:103EF00011127C7F494949363E414141227F41416F
:103F0000413E7F494949417F090909013E414151EB
:103F1000737F0808087F00417F41002040413F0136
:103F20007F081422417F404040407F021C027F7F77
:103F30000408107F3E4141413E7F090909063E4188
:103F400051215E7F09192946264949493203017FDB
:103F500001033F4040403F1F2040201F3F4038406A
:103F60003F631408146303047804036159494D4303
:103F7000007F4141410204081020004141417F047B
:103F80000201020440404040400003070800205462
:103F90005438407F28444438384444442838444402
:103FA000287F385454541800087E09020C52524A93
:103FB0003C7F0804047800447D40002040403D00E0
:103FC0007F1028440000417F40007C047804787C06
:103FD0000804047838444444387C182424181824ED
:103FE00024187C7C08040408485454542404043FD6
:103FF00044243C4040207C1C2040201C3C4030405D
:104000003C44281028444C5050503C4464544C4488
:104010000008364100000077000000413608000229
:104020000102040244400008000000209400000047
:104030008E270008D840000894000020F4040000F7
:104040009E270008000000000101000000000000A1
:10405000000000000A000000010100000000000054
:104060000000000000000000000000000000000050
:1040700000000000202043454E54455220202020BF
:1040800020205550202020202052494748545F5579
:104090005020202052494748542020205249474868
:1040A000545F444F574E202020444F574E2020202D
:1040B0004C4546545F444F574E202020204C4546E7
:1040C0005420202020204C4546545F5550200000AD
:0840D0000000000080841E00C6
:04000005080000C12E
:00000001FF
